{
  "contracts/LandRegistry.sol": {
    "LandRegistry": {
      "abi": [
        {
          "inputs": [],
          "stateMutability": "nonpayable",
          "type": "constructor"
        },
        {
          "inputs": [
            {
              "internalType": "address",
              "name": "owner",
              "type": "address"
            }
          ],
          "name": "OwnableInvalidOwner",
          "type": "error"
        },
        {
          "inputs": [
            {
              "internalType": "address",
              "name": "account",
              "type": "address"
            }
          ],
          "name": "OwnableUnauthorizedAccount",
          "type": "error"
        },
        {
          "anonymous": false,
          "inputs": [
            {
              "indexed": false,
              "internalType": "bytes32",
              "name": "landId",
              "type": "bytes32"
            }
          ],
          "name": "Debug",
          "type": "event"
        },
        {
          "anonymous": false,
          "inputs": [
            {
              "indexed": true,
              "internalType": "bytes32",
              "name": "landId",
              "type": "bytes32"
            },
            {
              "indexed": true,
              "internalType": "address",
              "name": "owner",
              "type": "address"
            },
            {
              "indexed": false,
              "internalType": "string",
              "name": "ownerName",
              "type": "string"
            }
          ],
          "name": "LandRegistered",
          "type": "event"
        },
        {
          "anonymous": false,
          "inputs": [
            {
              "indexed": true,
              "internalType": "address",
              "name": "previousOwner",
              "type": "address"
            },
            {
              "indexed": true,
              "internalType": "address",
              "name": "newOwner",
              "type": "address"
            }
          ],
          "name": "OwnershipTransferred",
          "type": "event"
        },
        {
          "anonymous": false,
          "inputs": [
            {
              "indexed": true,
              "internalType": "bytes32",
              "name": "landId",
              "type": "bytes32"
            },
            {
              "indexed": true,
              "internalType": "address",
              "name": "from",
              "type": "address"
            },
            {
              "indexed": true,
              "internalType": "address",
              "name": "to",
              "type": "address"
            }
          ],
          "name": "OwnershipTransferred",
          "type": "event"
        },
        {
          "inputs": [
            {
              "internalType": "bytes32",
              "name": "_landId",
              "type": "bytes32"
            }
          ],
          "name": "getLand",
          "outputs": [
            {
              "components": [
                {
                  "internalType": "string",
                  "name": "ownerName",
                  "type": "string"
                },
                {
                  "internalType": "uint256",
                  "name": "landArea",
                  "type": "uint256"
                },
                {
                  "internalType": "string",
                  "name": "district",
                  "type": "string"
                },
                {
                  "internalType": "string",
                  "name": "taluk",
                  "type": "string"
                },
                {
                  "internalType": "string",
                  "name": "village",
                  "type": "string"
                },
                {
                  "internalType": "uint256",
                  "name": "blockNumber",
                  "type": "uint256"
                },
                {
                  "internalType": "uint256",
                  "name": "surveyNumber",
                  "type": "uint256"
                },
                {
                  "internalType": "address",
                  "name": "ownerAddress",
                  "type": "address"
                },
                {
                  "internalType": "bool",
                  "name": "exists",
                  "type": "bool"
                }
              ],
              "internalType": "struct LandRegistry.Land",
              "name": "",
              "type": "tuple"
            }
          ],
          "stateMutability": "view",
          "type": "function"
        },
        {
          "inputs": [
            {
              "internalType": "bytes32",
              "name": "",
              "type": "bytes32"
            }
          ],
          "name": "landExists",
          "outputs": [
            {
              "internalType": "bool",
              "name": "",
              "type": "bool"
            }
          ],
          "stateMutability": "view",
          "type": "function"
        },
        {
          "inputs": [
            {
              "internalType": "bytes32",
              "name": "",
              "type": "bytes32"
            }
          ],
          "name": "lands",
          "outputs": [
            {
              "internalType": "string",
              "name": "ownerName",
              "type": "string"
            },
            {
              "internalType": "uint256",
              "name": "landArea",
              "type": "uint256"
            },
            {
              "internalType": "string",
              "name": "district",
              "type": "string"
            },
            {
              "internalType": "string",
              "name": "taluk",
              "type": "string"
            },
            {
              "internalType": "string",
              "name": "village",
              "type": "string"
            },
            {
              "internalType": "uint256",
              "name": "blockNumber",
              "type": "uint256"
            },
            {
              "internalType": "uint256",
              "name": "surveyNumber",
              "type": "uint256"
            },
            {
              "internalType": "address",
              "name": "ownerAddress",
              "type": "address"
            },
            {
              "internalType": "bool",
              "name": "exists",
              "type": "bool"
            }
          ],
          "stateMutability": "view",
          "type": "function"
        },
        {
          "inputs": [],
          "name": "owner",
          "outputs": [
            {
              "internalType": "address",
              "name": "",
              "type": "address"
            }
          ],
          "stateMutability": "view",
          "type": "function"
        },
        {
          "inputs": [
            {
              "internalType": "string",
              "name": "_ownerName",
              "type": "string"
            },
            {
              "internalType": "uint256",
              "name": "_landArea",
              "type": "uint256"
            },
            {
              "internalType": "string",
              "name": "_district",
              "type": "string"
            },
            {
              "internalType": "string",
              "name": "_taluk",
              "type": "string"
            },
            {
              "internalType": "string",
              "name": "_village",
              "type": "string"
            },
            {
              "internalType": "uint256",
              "name": "_blockNumber",
              "type": "uint256"
            },
            {
              "internalType": "uint256",
              "name": "_surveyNumber",
              "type": "uint256"
            }
          ],
          "name": "registerLand",
          "outputs": [],
          "stateMutability": "nonpayable",
          "type": "function"
        },
        {
          "inputs": [],
          "name": "renounceOwnership",
          "outputs": [],
          "stateMutability": "nonpayable",
          "type": "function"
        },
        {
          "inputs": [
            {
              "internalType": "bytes32",
              "name": "_landId",
              "type": "bytes32"
            },
            {
              "internalType": "string",
              "name": "_ownerName",
              "type": "string"
            }
          ],
          "name": "transferLandOwnership",
          "outputs": [],
          "stateMutability": "payable",
          "type": "function"
        },
        {
          "inputs": [
            {
              "internalType": "address",
              "name": "newOwner",
              "type": "address"
            }
          ],
          "name": "transferOwnership",
          "outputs": [],
          "stateMutability": "nonpayable",
          "type": "function"
        }
      ],
      "evm": {
        "bytecode": {
          "linkReferences": {},
          "object": "608060405234801561001057600080fd5b5033600073ffffffffffffffffffffffffffffffffffffffff168173ffffffffffffffffffffffffffffffffffffffff16036100845760006040517f1e4fbdf700000000000000000000000000000000000000000000000000000000815260040161007b919061019e565b60405180910390fd5b6100938161009960201b60201c565b506101b9565b60008060009054906101000a900473ffffffffffffffffffffffffffffffffffffffff169050816000806101000a81548173ffffffffffffffffffffffffffffffffffffffff021916908373ffffffffffffffffffffffffffffffffffffffff1602179055508173ffffffffffffffffffffffffffffffffffffffff168173ffffffffffffffffffffffffffffffffffffffff167f8be0079c531659141344cd1fd0a4f28419497f9722a3daafe3b4186f6b6457e060405160405180910390a35050565b600073ffffffffffffffffffffffffffffffffffffffff82169050919050565b60006101888261015d565b9050919050565b6101988161017d565b82525050565b60006020820190506101b3600083018461018f565b92915050565b611c87806101c86000396000f3fe60806040526004361061007b5760003560e01c80638da5cb5b1161004e5780638da5cb5b14610121578063a89dae821461014c578063f2fde38b14610189578063f987cd9e146101b25761007b565b8063139e38b41461008057806316f72470146100c5578063715018a6146100ee57806384bec66014610105575b600080fd5b34801561008c57600080fd5b506100a760048036038101906100a29190610fc4565b6101ef565b6040516100bc999897969594939291906110f6565b60405180910390f35b3480156100d157600080fd5b506100ec60048036038101906100e79190611300565b61048a565b005b3480156100fa57600080fd5b50610103610729565b005b61011f600480360381019061011a9190611412565b61073d565b005b34801561012d57600080fd5b5061013661098c565b604051610143919061146e565b60405180910390f35b34801561015857600080fd5b50610173600480360381019061016e9190610fc4565b6109b5565b6040516101809190611489565b60405180910390f35b34801561019557600080fd5b506101b060048036038101906101ab91906114d0565b6109d5565b005b3480156101be57600080fd5b506101d960048036038101906101d49190610fc4565b610a5b565b6040516101e6919061164e565b60405180910390f35b60016020528060005260406000206000915090508060000180546102129061169f565b80601f016020809104026020016040519081016040528092919081815260200182805461023e9061169f565b801561028b5780601f106102605761010080835404028352916020019161028b565b820191906000526020600020905b81548152906001019060200180831161026e57829003601f168201915b5050505050908060010154908060020180546102a69061169f565b80601f01602080910402602001604051908101604052809291908181526020018280546102d29061169f565b801561031f5780601f106102f45761010080835404028352916020019161031f565b820191906000526020600020905b81548152906001019060200180831161030257829003601f168201915b5050505050908060030180546103349061169f565b80601f01602080910402602001604051908101604052809291908181526020018280546103609061169f565b80156103ad5780601f10610382576101008083540402835291602001916103ad565b820191906000526020600020905b81548152906001019060200180831161039057829003601f168201915b5050505050908060040180546103c29061169f565b80601f01602080910402602001604051908101604052809291908181526020018280546103ee9061169f565b801561043b5780601f106104105761010080835404028352916020019161043b565b820191906000526020600020905b81548152906001019060200180831161041e57829003601f168201915b5050505050908060050154908060060154908060070160009054906101000a900473ffffffffffffffffffffffffffffffffffffffff16908060070160149054906101000a900460ff16905089565b60008686868686866040516020016104a79695949392919061172d565b6040516020818303038152906040528051906020012090506002600082815260200190815260200160002060009054906101000a900460ff1615610520576040517f08c379a0000000000000000000000000000000000000000000000000000000008152600401610517906117dd565b60405180910390fd5b6040518061012001604052808981526020018881526020018781526020018681526020018581526020018481526020018381526020013373ffffffffffffffffffffffffffffffffffffffff168152602001600115158152506001600083815260200190815260200160002060008201518160000190816105a191906119a9565b506020820151816001015560408201518160020190816105c191906119a9565b5060608201518160030190816105d791906119a9565b5060808201518160040190816105ed91906119a9565b5060a0820151816005015560c0820151816006015560e08201518160070160006101000a81548173ffffffffffffffffffffffffffffffffffffffff021916908373ffffffffffffffffffffffffffffffffffffffff1602179055506101008201518160070160146101000a81548160ff02191690831515021790555090505060016002600083815260200190815260200160002060006101000a81548160ff0219169083151502179055503373ffffffffffffffffffffffffffffffffffffffff16817fcfa7f32e4faf90b1499a92258951cbc53cd65bd1fbca794dfac0c22ecd04cf898a6040516106e09190611a7b565b60405180910390a37ff6d7d8f638af86edbd3db0363022953a79197e2b970840dd72ca38b9b4ada892816040516107179190611aac565b60405180910390a15050505050505050565b610731610dc3565b61073b6000610e4a565b565b6001600083815260200190815260200160002060070160149054906101000a900460ff166107a0576040517f08c379a000000000000000000000000000000000000000000000000000000000815260040161079790611b13565b60405180910390fd5b662386f26fc1000034146107e9576040517f08c379a00000000000000000000000000000000000000000000000000000000081526004016107e090611b7f565b60405180910390fd5b600060016000848152602001908152602001600020905060008160070160009054906101000a900473ffffffffffffffffffffffffffffffffffffffff169050338260070160006101000a81548173ffffffffffffffffffffffffffffffffffffffff021916908373ffffffffffffffffffffffffffffffffffffffff1602179055508282600001908161087d91906119a9565b5060008173ffffffffffffffffffffffffffffffffffffffff16346040516108a490611bd0565b60006040518083038185875af1925050503d80600081146108e1576040519150601f19603f3d011682016040523d82523d6000602084013e6108e6565b606091505b505090508061092a576040517f08c379a000000000000000000000000000000000000000000000000000000000815260040161092190611c31565b60405180910390fd5b3373ffffffffffffffffffffffffffffffffffffffff168273ffffffffffffffffffffffffffffffffffffffff16867f0b659dccc8eb950324170e8d9598af5ee04ee070883eb28651a96788721fbf8360405160405180910390a45050505050565b60008060009054906101000a900473ffffffffffffffffffffffffffffffffffffffff16905090565b60026020528060005260406000206000915054906101000a900460ff1681565b6109dd610dc3565b600073ffffffffffffffffffffffffffffffffffffffff168173ffffffffffffffffffffffffffffffffffffffff1603610a4f5760006040517f1e4fbdf7000000000000000000000000000000000000000000000000000000008152600401610a46919061146e565b60405180910390fd5b610a5881610e4a565b50565b610a63610f16565b6001600083815260200190815260200160002060070160149054906101000a900460ff16610ac6576040517f08c379a0000000000000000000000000000000000000000000000000000000008152600401610abd90611b13565b60405180910390fd5b6001600083815260200190815260200160002060405180610120016040529081600082018054610af59061169f565b80601f0160208091040260200160405190810160405280929190818152602001828054610b219061169f565b8015610b6e5780601f10610b4357610100808354040283529160200191610b6e565b820191906000526020600020905b815481529060010190602001808311610b5157829003601f168201915b5050505050815260200160018201548152602001600282018054610b919061169f565b80601f0160208091040260200160405190810160405280929190818152602001828054610bbd9061169f565b8015610c0a5780601f10610bdf57610100808354040283529160200191610c0a565b820191906000526020600020905b815481529060010190602001808311610bed57829003601f168201915b50505050508152602001600382018054610c239061169f565b80601f0160208091040260200160405190810160405280929190818152602001828054610c4f9061169f565b8015610c9c5780601f10610c7157610100808354040283529160200191610c9c565b820191906000526020600020905b815481529060010190602001808311610c7f57829003601f168201915b50505050508152602001600482018054610cb59061169f565b80601f0160208091040260200160405190810160405280929190818152602001828054610ce19061169f565b8015610d2e5780601f10610d0357610100808354040283529160200191610d2e565b820191906000526020600020905b815481529060010190602001808311610d1157829003601f168201915b5050505050815260200160058201548152602001600682015481526020016007820160009054906101000a900473ffffffffffffffffffffffffffffffffffffffff1673ffffffffffffffffffffffffffffffffffffffff1673ffffffffffffffffffffffffffffffffffffffff1681526020016007820160149054906101000a900460ff1615151515815250509050919050565b610dcb610f0e565b73ffffffffffffffffffffffffffffffffffffffff16610de961098c565b73ffffffffffffffffffffffffffffffffffffffff1614610e4857610e0c610f0e565b6040517f118cdaa7000000000000000000000000000000000000000000000000000000008152600401610e3f919061146e565b60405180910390fd5b565b60008060009054906101000a900473ffffffffffffffffffffffffffffffffffffffff169050816000806101000a81548173ffffffffffffffffffffffffffffffffffffffff021916908373ffffffffffffffffffffffffffffffffffffffff1602179055508173ffffffffffffffffffffffffffffffffffffffff168173ffffffffffffffffffffffffffffffffffffffff167f8be0079c531659141344cd1fd0a4f28419497f9722a3daafe3b4186f6b6457e060405160405180910390a35050565b600033905090565b60405180610120016040528060608152602001600081526020016060815260200160608152602001606081526020016000815260200160008152602001600073ffffffffffffffffffffffffffffffffffffffff1681526020016000151581525090565b6000604051905090565b600080fd5b600080fd5b6000819050919050565b610fa181610f8e565b8114610fac57600080fd5b50565b600081359050610fbe81610f98565b92915050565b600060208284031215610fda57610fd9610f84565b5b6000610fe884828501610faf565b91505092915050565b600081519050919050565b600082825260208201905092915050565b60005b8381101561102b578082015181840152602081019050611010565b60008484015250505050565b6000601f19601f8301169050919050565b600061105382610ff1565b61105d8185610ffc565b935061106d81856020860161100d565b61107681611037565b840191505092915050565b6000819050919050565b61109481611081565b82525050565b600073ffffffffffffffffffffffffffffffffffffffff82169050919050565b60006110c58261109a565b9050919050565b6110d5816110ba565b82525050565b60008115159050919050565b6110f0816110db565b82525050565b6000610120820190508181036000830152611111818c611048565b9050611120602083018b61108b565b8181036040830152611132818a611048565b905081810360608301526111468189611048565b9050818103608083015261115a8188611048565b905061116960a083018761108b565b61117660c083018661108b565b61118360e08301856110cc565b6111916101008301846110e7565b9a9950505050505050505050565b600080fd5b600080fd5b7f4e487b7100000000000000000000000000000000000000000000000000000000600052604160045260246000fd5b6111e182611037565b810181811067ffffffffffffffff82111715611200576111ff6111a9565b5b80604052505050565b6000611213610f7a565b905061121f82826111d8565b919050565b600067ffffffffffffffff82111561123f5761123e6111a9565b5b61124882611037565b9050602081019050919050565b82818337600083830152505050565b600061127761127284611224565b611209565b905082815260208101848484011115611293576112926111a4565b5b61129e848285611255565b509392505050565b600082601f8301126112bb576112ba61119f565b5b81356112cb848260208601611264565b91505092915050565b6112dd81611081565b81146112e857600080fd5b50565b6000813590506112fa816112d4565b92915050565b600080600080600080600060e0888a03121561131f5761131e610f84565b5b600088013567ffffffffffffffff81111561133d5761133c610f89565b5b6113498a828b016112a6565b975050602061135a8a828b016112eb565b965050604088013567ffffffffffffffff81111561137b5761137a610f89565b5b6113878a828b016112a6565b955050606088013567ffffffffffffffff8111156113a8576113a7610f89565b5b6113b48a828b016112a6565b945050608088013567ffffffffffffffff8111156113d5576113d4610f89565b5b6113e18a828b016112a6565b93505060a06113f28a828b016112eb565b92505060c06114038a828b016112eb565b91505092959891949750929550565b6000806040838503121561142957611428610f84565b5b600061143785828601610faf565b925050602083013567ffffffffffffffff81111561145857611457610f89565b5b611464858286016112a6565b9150509250929050565b600060208201905061148360008301846110cc565b92915050565b600060208201905061149e60008301846110e7565b92915050565b6114ad816110ba565b81146114b857600080fd5b50565b6000813590506114ca816114a4565b92915050565b6000602082840312156114e6576114e5610f84565b5b60006114f4848285016114bb565b91505092915050565b600082825260208201905092915050565b600061151982610ff1565b61152381856114fd565b935061153381856020860161100d565b61153c81611037565b840191505092915050565b61155081611081565b82525050565b61155f816110ba565b82525050565b61156e816110db565b82525050565b6000610120830160008301518482036000860152611592828261150e565b91505060208301516115a76020860182611547565b50604083015184820360408601526115bf828261150e565b915050606083015184820360608601526115d9828261150e565b915050608083015184820360808601526115f3828261150e565b91505060a083015161160860a0860182611547565b5060c083015161161b60c0860182611547565b5060e083015161162e60e0860182611556565b50610100830151611643610100860182611565565b508091505092915050565b600060208201905081810360008301526116688184611574565b905092915050565b7f4e487b7100000000000000000000000000000000000000000000000000000000600052602260045260246000fd5b600060028204905060018216806116b757607f821691505b6020821081036116ca576116c9611670565b5b50919050565b6000819050919050565b6116eb6116e682611081565b6116d0565b82525050565b600081905092915050565b600061170782610ff1565b61171181856116f1565b935061172181856020860161100d565b80840191505092915050565b600061173982896116da565b60208201915061174982886116fc565b915061175582876116fc565b915061176182866116fc565b915061176d82856116da565b60208201915061177d82846116da565b602082019150819050979650505050505050565b7f4c616e6420616c72656164792072656769737465726564000000000000000000600082015250565b60006117c7601783610ffc565b91506117d282611791565b602082019050919050565b600060208201905081810360008301526117f6816117ba565b9050919050565b60008190508160005260206000209050919050565b60006020601f8301049050919050565b600082821b905092915050565b60006008830261185f7fffffffffffffffffffffffffffffffffffffffffffffffffffffffffffffffff82611822565b6118698683611822565b95508019841693508086168417925050509392505050565b6000819050919050565b60006118a66118a161189c84611081565b611881565b611081565b9050919050565b6000819050919050565b6118c08361188b565b6118d46118cc826118ad565b84845461182f565b825550505050565b600090565b6118e96118dc565b6118f48184846118b7565b505050565b5b818110156119185761190d6000826118e1565b6001810190506118fa565b5050565b601f82111561195d5761192e816117fd565b61193784611812565b81016020851015611946578190505b61195a61195285611812565b8301826118f9565b50505b505050565b600082821c905092915050565b600061198060001984600802611962565b1980831691505092915050565b6000611999838361196f565b9150826002028217905092915050565b6119b282610ff1565b67ffffffffffffffff8111156119cb576119ca6111a9565b5b6119d5825461169f565b6119e082828561191c565b600060209050601f831160018114611a135760008415611a01578287015190505b611a0b858261198d565b865550611a73565b601f198416611a21866117fd565b60005b82811015611a4957848901518255600182019150602085019450602081019050611a24565b86831015611a665784890151611a62601f89168261196f565b8355505b6001600288020188555050505b505050505050565b60006020820190508181036000830152611a958184611048565b905092915050565b611aa681610f8e565b82525050565b6000602082019050611ac16000830184611a9d565b92915050565b7f4c616e6420646f6573206e6f7420657869737400000000000000000000000000600082015250565b6000611afd601383610ffc565b9150611b0882611ac7565b602082019050919050565b60006020820190508181036000830152611b2c81611af0565b9050919050565b7f4d757374207061792065786163746c7920302e3031204d415449430000000000600082015250565b6000611b69601b83610ffc565b9150611b7482611b33565b602082019050919050565b60006020820190508181036000830152611b9881611b5c565b9050919050565b600081905092915050565b50565b6000611bba600083611b9f565b9150611bc582611baa565b600082019050919050565b6000611bdb82611bad565b9150819050919050565b7f4d41544943207472616e73666572206661696c65640000000000000000000000600082015250565b6000611c1b601583610ffc565b9150611c2682611be5565b602082019050919050565b60006020820190508181036000830152611c4a81611c0e565b905091905056fea2646970667358221220b68ca709c65b955c12ce2de2a3587339f707cc856e43547f1fa3501574f1546a64736f6c634300081c0033",
          "opcodes": "PUSH1 0x80 PUSH1 0x40 MSTORE CALLVALUE DUP1 ISZERO PUSH2 0x10 JUMPI PUSH1 0x0 DUP1 REVERT JUMPDEST POP CALLER PUSH1 0x0 PUSH20 0xFFFFFFFFFFFFFFFFFFFFFFFFFFFFFFFFFFFFFFFF AND DUP2 PUSH20 0xFFFFFFFFFFFFFFFFFFFFFFFFFFFFFFFFFFFFFFFF AND SUB PUSH2 0x84 JUMPI PUSH1 0x0 PUSH1 0x40 MLOAD PUSH32 0x1E4FBDF700000000000000000000000000000000000000000000000000000000 DUP2 MSTORE PUSH1 0x4 ADD PUSH2 0x7B SWAP2 SWAP1 PUSH2 0x19E JUMP JUMPDEST PUSH1 0x40 MLOAD DUP1 SWAP2 SUB SWAP1 REVERT JUMPDEST PUSH2 0x93 DUP2 PUSH2 0x99 PUSH1 0x20 SHL PUSH1 0x20 SHR JUMP JUMPDEST POP PUSH2 0x1B9 JUMP JUMPDEST PUSH1 0x0 DUP1 PUSH1 0x0 SWAP1 SLOAD SWAP1 PUSH2 0x100 EXP SWAP1 DIV PUSH20 0xFFFFFFFFFFFFFFFFFFFFFFFFFFFFFFFFFFFFFFFF AND SWAP1 POP DUP2 PUSH1 0x0 DUP1 PUSH2 0x100 EXP DUP2 SLOAD DUP2 PUSH20 0xFFFFFFFFFFFFFFFFFFFFFFFFFFFFFFFFFFFFFFFF MUL NOT AND SWAP1 DUP4 PUSH20 0xFFFFFFFFFFFFFFFFFFFFFFFFFFFFFFFFFFFFFFFF AND MUL OR SWAP1 SSTORE POP DUP2 PUSH20 0xFFFFFFFFFFFFFFFFFFFFFFFFFFFFFFFFFFFFFFFF AND DUP2 PUSH20 0xFFFFFFFFFFFFFFFFFFFFFFFFFFFFFFFFFFFFFFFF AND PUSH32 0x8BE0079C531659141344CD1FD0A4F28419497F9722A3DAAFE3B4186F6B6457E0 PUSH1 0x40 MLOAD PUSH1 0x40 MLOAD DUP1 SWAP2 SUB SWAP1 LOG3 POP POP JUMP JUMPDEST PUSH1 0x0 PUSH20 0xFFFFFFFFFFFFFFFFFFFFFFFFFFFFFFFFFFFFFFFF DUP3 AND SWAP1 POP SWAP2 SWAP1 POP JUMP JUMPDEST PUSH1 0x0 PUSH2 0x188 DUP3 PUSH2 0x15D JUMP JUMPDEST SWAP1 POP SWAP2 SWAP1 POP JUMP JUMPDEST PUSH2 0x198 DUP2 PUSH2 0x17D JUMP JUMPDEST DUP3 MSTORE POP POP JUMP JUMPDEST PUSH1 0x0 PUSH1 0x20 DUP3 ADD SWAP1 POP PUSH2 0x1B3 PUSH1 0x0 DUP4 ADD DUP5 PUSH2 0x18F JUMP JUMPDEST SWAP3 SWAP2 POP POP JUMP JUMPDEST PUSH2 0x1C87 DUP1 PUSH2 0x1C8 PUSH1 0x0 CODECOPY PUSH1 0x0 RETURN INVALID PUSH1 0x80 PUSH1 0x40 MSTORE PUSH1 0x4 CALLDATASIZE LT PUSH2 0x7B JUMPI PUSH1 0x0 CALLDATALOAD PUSH1 0xE0 SHR DUP1 PUSH4 0x8DA5CB5B GT PUSH2 0x4E JUMPI DUP1 PUSH4 0x8DA5CB5B EQ PUSH2 0x121 JUMPI DUP1 PUSH4 0xA89DAE82 EQ PUSH2 0x14C JUMPI DUP1 PUSH4 0xF2FDE38B EQ PUSH2 0x189 JUMPI DUP1 PUSH4 0xF987CD9E EQ PUSH2 0x1B2 JUMPI PUSH2 0x7B JUMP JUMPDEST DUP1 PUSH4 0x139E38B4 EQ PUSH2 0x80 JUMPI DUP1 PUSH4 0x16F72470 EQ PUSH2 0xC5 JUMPI DUP1 PUSH4 0x715018A6 EQ PUSH2 0xEE JUMPI DUP1 PUSH4 0x84BEC660 EQ PUSH2 0x105 JUMPI JUMPDEST PUSH1 0x0 DUP1 REVERT JUMPDEST CALLVALUE DUP1 ISZERO PUSH2 0x8C JUMPI PUSH1 0x0 DUP1 REVERT JUMPDEST POP PUSH2 0xA7 PUSH1 0x4 DUP1 CALLDATASIZE SUB DUP2 ADD SWAP1 PUSH2 0xA2 SWAP2 SWAP1 PUSH2 0xFC4 JUMP JUMPDEST PUSH2 0x1EF JUMP JUMPDEST PUSH1 0x40 MLOAD PUSH2 0xBC SWAP10 SWAP9 SWAP8 SWAP7 SWAP6 SWAP5 SWAP4 SWAP3 SWAP2 SWAP1 PUSH2 0x10F6 JUMP JUMPDEST PUSH1 0x40 MLOAD DUP1 SWAP2 SUB SWAP1 RETURN JUMPDEST CALLVALUE DUP1 ISZERO PUSH2 0xD1 JUMPI PUSH1 0x0 DUP1 REVERT JUMPDEST POP PUSH2 0xEC PUSH1 0x4 DUP1 CALLDATASIZE SUB DUP2 ADD SWAP1 PUSH2 0xE7 SWAP2 SWAP1 PUSH2 0x1300 JUMP JUMPDEST PUSH2 0x48A JUMP JUMPDEST STOP JUMPDEST CALLVALUE DUP1 ISZERO PUSH2 0xFA JUMPI PUSH1 0x0 DUP1 REVERT JUMPDEST POP PUSH2 0x103 PUSH2 0x729 JUMP JUMPDEST STOP JUMPDEST PUSH2 0x11F PUSH1 0x4 DUP1 CALLDATASIZE SUB DUP2 ADD SWAP1 PUSH2 0x11A SWAP2 SWAP1 PUSH2 0x1412 JUMP JUMPDEST PUSH2 0x73D JUMP JUMPDEST STOP JUMPDEST CALLVALUE DUP1 ISZERO PUSH2 0x12D JUMPI PUSH1 0x0 DUP1 REVERT JUMPDEST POP PUSH2 0x136 PUSH2 0x98C JUMP JUMPDEST PUSH1 0x40 MLOAD PUSH2 0x143 SWAP2 SWAP1 PUSH2 0x146E JUMP JUMPDEST PUSH1 0x40 MLOAD DUP1 SWAP2 SUB SWAP1 RETURN JUMPDEST CALLVALUE DUP1 ISZERO PUSH2 0x158 JUMPI PUSH1 0x0 DUP1 REVERT JUMPDEST POP PUSH2 0x173 PUSH1 0x4 DUP1 CALLDATASIZE SUB DUP2 ADD SWAP1 PUSH2 0x16E SWAP2 SWAP1 PUSH2 0xFC4 JUMP JUMPDEST PUSH2 0x9B5 JUMP JUMPDEST PUSH1 0x40 MLOAD PUSH2 0x180 SWAP2 SWAP1 PUSH2 0x1489 JUMP JUMPDEST PUSH1 0x40 MLOAD DUP1 SWAP2 SUB SWAP1 RETURN JUMPDEST CALLVALUE DUP1 ISZERO PUSH2 0x195 JUMPI PUSH1 0x0 DUP1 REVERT JUMPDEST POP PUSH2 0x1B0 PUSH1 0x4 DUP1 CALLDATASIZE SUB DUP2 ADD SWAP1 PUSH2 0x1AB SWAP2 SWAP1 PUSH2 0x14D0 JUMP JUMPDEST PUSH2 0x9D5 JUMP JUMPDEST STOP JUMPDEST CALLVALUE DUP1 ISZERO PUSH2 0x1BE JUMPI PUSH1 0x0 DUP1 REVERT JUMPDEST POP PUSH2 0x1D9 PUSH1 0x4 DUP1 CALLDATASIZE SUB DUP2 ADD SWAP1 PUSH2 0x1D4 SWAP2 SWAP1 PUSH2 0xFC4 JUMP JUMPDEST PUSH2 0xA5B JUMP JUMPDEST PUSH1 0x40 MLOAD PUSH2 0x1E6 SWAP2 SWAP1 PUSH2 0x164E JUMP JUMPDEST PUSH1 0x40 MLOAD DUP1 SWAP2 SUB SWAP1 RETURN JUMPDEST PUSH1 0x1 PUSH1 0x20 MSTORE DUP1 PUSH1 0x0 MSTORE PUSH1 0x40 PUSH1 0x0 KECCAK256 PUSH1 0x0 SWAP2 POP SWAP1 POP DUP1 PUSH1 0x0 ADD DUP1 SLOAD PUSH2 0x212 SWAP1 PUSH2 0x169F JUMP JUMPDEST DUP1 PUSH1 0x1F ADD PUSH1 0x20 DUP1 SWAP2 DIV MUL PUSH1 0x20 ADD PUSH1 0x40 MLOAD SWAP1 DUP2 ADD PUSH1 0x40 MSTORE DUP1 SWAP3 SWAP2 SWAP1 DUP2 DUP2 MSTORE PUSH1 0x20 ADD DUP3 DUP1 SLOAD PUSH2 0x23E SWAP1 PUSH2 0x169F JUMP JUMPDEST DUP1 ISZERO PUSH2 0x28B JUMPI DUP1 PUSH1 0x1F LT PUSH2 0x260 JUMPI PUSH2 0x100 DUP1 DUP4 SLOAD DIV MUL DUP4 MSTORE SWAP2 PUSH1 0x20 ADD SWAP2 PUSH2 0x28B JUMP JUMPDEST DUP3 ADD SWAP2 SWAP1 PUSH1 0x0 MSTORE PUSH1 0x20 PUSH1 0x0 KECCAK256 SWAP1 JUMPDEST DUP2 SLOAD DUP2 MSTORE SWAP1 PUSH1 0x1 ADD SWAP1 PUSH1 0x20 ADD DUP1 DUP4 GT PUSH2 0x26E JUMPI DUP3 SWAP1 SUB PUSH1 0x1F AND DUP3 ADD SWAP2 JUMPDEST POP POP POP POP POP SWAP1 DUP1 PUSH1 0x1 ADD SLOAD SWAP1 DUP1 PUSH1 0x2 ADD DUP1 SLOAD PUSH2 0x2A6 SWAP1 PUSH2 0x169F JUMP JUMPDEST DUP1 PUSH1 0x1F ADD PUSH1 0x20 DUP1 SWAP2 DIV MUL PUSH1 0x20 ADD PUSH1 0x40 MLOAD SWAP1 DUP2 ADD PUSH1 0x40 MSTORE DUP1 SWAP3 SWAP2 SWAP1 DUP2 DUP2 MSTORE PUSH1 0x20 ADD DUP3 DUP1 SLOAD PUSH2 0x2D2 SWAP1 PUSH2 0x169F JUMP JUMPDEST DUP1 ISZERO PUSH2 0x31F JUMPI DUP1 PUSH1 0x1F LT PUSH2 0x2F4 JUMPI PUSH2 0x100 DUP1 DUP4 SLOAD DIV MUL DUP4 MSTORE SWAP2 PUSH1 0x20 ADD SWAP2 PUSH2 0x31F JUMP JUMPDEST DUP3 ADD SWAP2 SWAP1 PUSH1 0x0 MSTORE PUSH1 0x20 PUSH1 0x0 KECCAK256 SWAP1 JUMPDEST DUP2 SLOAD DUP2 MSTORE SWAP1 PUSH1 0x1 ADD SWAP1 PUSH1 0x20 ADD DUP1 DUP4 GT PUSH2 0x302 JUMPI DUP3 SWAP1 SUB PUSH1 0x1F AND DUP3 ADD SWAP2 JUMPDEST POP POP POP POP POP SWAP1 DUP1 PUSH1 0x3 ADD DUP1 SLOAD PUSH2 0x334 SWAP1 PUSH2 0x169F JUMP JUMPDEST DUP1 PUSH1 0x1F ADD PUSH1 0x20 DUP1 SWAP2 DIV MUL PUSH1 0x20 ADD PUSH1 0x40 MLOAD SWAP1 DUP2 ADD PUSH1 0x40 MSTORE DUP1 SWAP3 SWAP2 SWAP1 DUP2 DUP2 MSTORE PUSH1 0x20 ADD DUP3 DUP1 SLOAD PUSH2 0x360 SWAP1 PUSH2 0x169F JUMP JUMPDEST DUP1 ISZERO PUSH2 0x3AD JUMPI DUP1 PUSH1 0x1F LT PUSH2 0x382 JUMPI PUSH2 0x100 DUP1 DUP4 SLOAD DIV MUL DUP4 MSTORE SWAP2 PUSH1 0x20 ADD SWAP2 PUSH2 0x3AD JUMP JUMPDEST DUP3 ADD SWAP2 SWAP1 PUSH1 0x0 MSTORE PUSH1 0x20 PUSH1 0x0 KECCAK256 SWAP1 JUMPDEST DUP2 SLOAD DUP2 MSTORE SWAP1 PUSH1 0x1 ADD SWAP1 PUSH1 0x20 ADD DUP1 DUP4 GT PUSH2 0x390 JUMPI DUP3 SWAP1 SUB PUSH1 0x1F AND DUP3 ADD SWAP2 JUMPDEST POP POP POP POP POP SWAP1 DUP1 PUSH1 0x4 ADD DUP1 SLOAD PUSH2 0x3C2 SWAP1 PUSH2 0x169F JUMP JUMPDEST DUP1 PUSH1 0x1F ADD PUSH1 0x20 DUP1 SWAP2 DIV MUL PUSH1 0x20 ADD PUSH1 0x40 MLOAD SWAP1 DUP2 ADD PUSH1 0x40 MSTORE DUP1 SWAP3 SWAP2 SWAP1 DUP2 DUP2 MSTORE PUSH1 0x20 ADD DUP3 DUP1 SLOAD PUSH2 0x3EE SWAP1 PUSH2 0x169F JUMP JUMPDEST DUP1 ISZERO PUSH2 0x43B JUMPI DUP1 PUSH1 0x1F LT PUSH2 0x410 JUMPI PUSH2 0x100 DUP1 DUP4 SLOAD DIV MUL DUP4 MSTORE SWAP2 PUSH1 0x20 ADD SWAP2 PUSH2 0x43B JUMP JUMPDEST DUP3 ADD SWAP2 SWAP1 PUSH1 0x0 MSTORE PUSH1 0x20 PUSH1 0x0 KECCAK256 SWAP1 JUMPDEST DUP2 SLOAD DUP2 MSTORE SWAP1 PUSH1 0x1 ADD SWAP1 PUSH1 0x20 ADD DUP1 DUP4 GT PUSH2 0x41E JUMPI DUP3 SWAP1 SUB PUSH1 0x1F AND DUP3 ADD SWAP2 JUMPDEST POP POP POP POP POP SWAP1 DUP1 PUSH1 0x5 ADD SLOAD SWAP1 DUP1 PUSH1 0x6 ADD SLOAD SWAP1 DUP1 PUSH1 0x7 ADD PUSH1 0x0 SWAP1 SLOAD SWAP1 PUSH2 0x100 EXP SWAP1 DIV PUSH20 0xFFFFFFFFFFFFFFFFFFFFFFFFFFFFFFFFFFFFFFFF AND SWAP1 DUP1 PUSH1 0x7 ADD PUSH1 0x14 SWAP1 SLOAD SWAP1 PUSH2 0x100 EXP SWAP1 DIV PUSH1 0xFF AND SWAP1 POP DUP10 JUMP JUMPDEST PUSH1 0x0 DUP7 DUP7 DUP7 DUP7 DUP7 DUP7 PUSH1 0x40 MLOAD PUSH1 0x20 ADD PUSH2 0x4A7 SWAP7 SWAP6 SWAP5 SWAP4 SWAP3 SWAP2 SWAP1 PUSH2 0x172D JUMP JUMPDEST PUSH1 0x40 MLOAD PUSH1 0x20 DUP2 DUP4 SUB SUB DUP2 MSTORE SWAP1 PUSH1 0x40 MSTORE DUP1 MLOAD SWAP1 PUSH1 0x20 ADD KECCAK256 SWAP1 POP PUSH1 0x2 PUSH1 0x0 DUP3 DUP2 MSTORE PUSH1 0x20 ADD SWAP1 DUP2 MSTORE PUSH1 0x20 ADD PUSH1 0x0 KECCAK256 PUSH1 0x0 SWAP1 SLOAD SWAP1 PUSH2 0x100 EXP SWAP1 DIV PUSH1 0xFF AND ISZERO PUSH2 0x520 JUMPI PUSH1 0x40 MLOAD PUSH32 0x8C379A000000000000000000000000000000000000000000000000000000000 DUP2 MSTORE PUSH1 0x4 ADD PUSH2 0x517 SWAP1 PUSH2 0x17DD JUMP JUMPDEST PUSH1 0x40 MLOAD DUP1 SWAP2 SUB SWAP1 REVERT JUMPDEST PUSH1 0x40 MLOAD DUP1 PUSH2 0x120 ADD PUSH1 0x40 MSTORE DUP1 DUP10 DUP2 MSTORE PUSH1 0x20 ADD DUP9 DUP2 MSTORE PUSH1 0x20 ADD DUP8 DUP2 MSTORE PUSH1 0x20 ADD DUP7 DUP2 MSTORE PUSH1 0x20 ADD DUP6 DUP2 MSTORE PUSH1 0x20 ADD DUP5 DUP2 MSTORE PUSH1 0x20 ADD DUP4 DUP2 MSTORE PUSH1 0x20 ADD CALLER PUSH20 0xFFFFFFFFFFFFFFFFFFFFFFFFFFFFFFFFFFFFFFFF AND DUP2 MSTORE PUSH1 0x20 ADD PUSH1 0x1 ISZERO ISZERO DUP2 MSTORE POP PUSH1 0x1 PUSH1 0x0 DUP4 DUP2 MSTORE PUSH1 0x20 ADD SWAP1 DUP2 MSTORE PUSH1 0x20 ADD PUSH1 0x0 KECCAK256 PUSH1 0x0 DUP3 ADD MLOAD DUP2 PUSH1 0x0 ADD SWAP1 DUP2 PUSH2 0x5A1 SWAP2 SWAP1 PUSH2 0x19A9 JUMP JUMPDEST POP PUSH1 0x20 DUP3 ADD MLOAD DUP2 PUSH1 0x1 ADD SSTORE PUSH1 0x40 DUP3 ADD MLOAD DUP2 PUSH1 0x2 ADD SWAP1 DUP2 PUSH2 0x5C1 SWAP2 SWAP1 PUSH2 0x19A9 JUMP JUMPDEST POP PUSH1 0x60 DUP3 ADD MLOAD DUP2 PUSH1 0x3 ADD SWAP1 DUP2 PUSH2 0x5D7 SWAP2 SWAP1 PUSH2 0x19A9 JUMP JUMPDEST POP PUSH1 0x80 DUP3 ADD MLOAD DUP2 PUSH1 0x4 ADD SWAP1 DUP2 PUSH2 0x5ED SWAP2 SWAP1 PUSH2 0x19A9 JUMP JUMPDEST POP PUSH1 0xA0 DUP3 ADD MLOAD DUP2 PUSH1 0x5 ADD SSTORE PUSH1 0xC0 DUP3 ADD MLOAD DUP2 PUSH1 0x6 ADD SSTORE PUSH1 0xE0 DUP3 ADD MLOAD DUP2 PUSH1 0x7 ADD PUSH1 0x0 PUSH2 0x100 EXP DUP2 SLOAD DUP2 PUSH20 0xFFFFFFFFFFFFFFFFFFFFFFFFFFFFFFFFFFFFFFFF MUL NOT AND SWAP1 DUP4 PUSH20 0xFFFFFFFFFFFFFFFFFFFFFFFFFFFFFFFFFFFFFFFF AND MUL OR SWAP1 SSTORE POP PUSH2 0x100 DUP3 ADD MLOAD DUP2 PUSH1 0x7 ADD PUSH1 0x14 PUSH2 0x100 EXP DUP2 SLOAD DUP2 PUSH1 0xFF MUL NOT AND SWAP1 DUP4 ISZERO ISZERO MUL OR SWAP1 SSTORE POP SWAP1 POP POP PUSH1 0x1 PUSH1 0x2 PUSH1 0x0 DUP4 DUP2 MSTORE PUSH1 0x20 ADD SWAP1 DUP2 MSTORE PUSH1 0x20 ADD PUSH1 0x0 KECCAK256 PUSH1 0x0 PUSH2 0x100 EXP DUP2 SLOAD DUP2 PUSH1 0xFF MUL NOT AND SWAP1 DUP4 ISZERO ISZERO MUL OR SWAP1 SSTORE POP CALLER PUSH20 0xFFFFFFFFFFFFFFFFFFFFFFFFFFFFFFFFFFFFFFFF AND DUP2 PUSH32 0xCFA7F32E4FAF90B1499A92258951CBC53CD65BD1FBCA794DFAC0C22ECD04CF89 DUP11 PUSH1 0x40 MLOAD PUSH2 0x6E0 SWAP2 SWAP1 PUSH2 0x1A7B JUMP JUMPDEST PUSH1 0x40 MLOAD DUP1 SWAP2 SUB SWAP1 LOG3 PUSH32 0xF6D7D8F638AF86EDBD3DB0363022953A79197E2B970840DD72CA38B9B4ADA892 DUP2 PUSH1 0x40 MLOAD PUSH2 0x717 SWAP2 SWAP1 PUSH2 0x1AAC JUMP JUMPDEST PUSH1 0x40 MLOAD DUP1 SWAP2 SUB SWAP1 LOG1 POP POP POP POP POP POP POP POP JUMP JUMPDEST PUSH2 0x731 PUSH2 0xDC3 JUMP JUMPDEST PUSH2 0x73B PUSH1 0x0 PUSH2 0xE4A JUMP JUMPDEST JUMP JUMPDEST PUSH1 0x1 PUSH1 0x0 DUP4 DUP2 MSTORE PUSH1 0x20 ADD SWAP1 DUP2 MSTORE PUSH1 0x20 ADD PUSH1 0x0 KECCAK256 PUSH1 0x7 ADD PUSH1 0x14 SWAP1 SLOAD SWAP1 PUSH2 0x100 EXP SWAP1 DIV PUSH1 0xFF AND PUSH2 0x7A0 JUMPI PUSH1 0x40 MLOAD PUSH32 0x8C379A000000000000000000000000000000000000000000000000000000000 DUP2 MSTORE PUSH1 0x4 ADD PUSH2 0x797 SWAP1 PUSH2 0x1B13 JUMP JUMPDEST PUSH1 0x40 MLOAD DUP1 SWAP2 SUB SWAP1 REVERT JUMPDEST PUSH7 0x2386F26FC10000 CALLVALUE EQ PUSH2 0x7E9 JUMPI PUSH1 0x40 MLOAD PUSH32 0x8C379A000000000000000000000000000000000000000000000000000000000 DUP2 MSTORE PUSH1 0x4 ADD PUSH2 0x7E0 SWAP1 PUSH2 0x1B7F JUMP JUMPDEST PUSH1 0x40 MLOAD DUP1 SWAP2 SUB SWAP1 REVERT JUMPDEST PUSH1 0x0 PUSH1 0x1 PUSH1 0x0 DUP5 DUP2 MSTORE PUSH1 0x20 ADD SWAP1 DUP2 MSTORE PUSH1 0x20 ADD PUSH1 0x0 KECCAK256 SWAP1 POP PUSH1 0x0 DUP2 PUSH1 0x7 ADD PUSH1 0x0 SWAP1 SLOAD SWAP1 PUSH2 0x100 EXP SWAP1 DIV PUSH20 0xFFFFFFFFFFFFFFFFFFFFFFFFFFFFFFFFFFFFFFFF AND SWAP1 POP CALLER DUP3 PUSH1 0x7 ADD PUSH1 0x0 PUSH2 0x100 EXP DUP2 SLOAD DUP2 PUSH20 0xFFFFFFFFFFFFFFFFFFFFFFFFFFFFFFFFFFFFFFFF MUL NOT AND SWAP1 DUP4 PUSH20 0xFFFFFFFFFFFFFFFFFFFFFFFFFFFFFFFFFFFFFFFF AND MUL OR SWAP1 SSTORE POP DUP3 DUP3 PUSH1 0x0 ADD SWAP1 DUP2 PUSH2 0x87D SWAP2 SWAP1 PUSH2 0x19A9 JUMP JUMPDEST POP PUSH1 0x0 DUP2 PUSH20 0xFFFFFFFFFFFFFFFFFFFFFFFFFFFFFFFFFFFFFFFF AND CALLVALUE PUSH1 0x40 MLOAD PUSH2 0x8A4 SWAP1 PUSH2 0x1BD0 JUMP JUMPDEST PUSH1 0x0 PUSH1 0x40 MLOAD DUP1 DUP4 SUB DUP2 DUP6 DUP8 GAS CALL SWAP3 POP POP POP RETURNDATASIZE DUP1 PUSH1 0x0 DUP2 EQ PUSH2 0x8E1 JUMPI PUSH1 0x40 MLOAD SWAP2 POP PUSH1 0x1F NOT PUSH1 0x3F RETURNDATASIZE ADD AND DUP3 ADD PUSH1 0x40 MSTORE RETURNDATASIZE DUP3 MSTORE RETURNDATASIZE PUSH1 0x0 PUSH1 0x20 DUP5 ADD RETURNDATACOPY PUSH2 0x8E6 JUMP JUMPDEST PUSH1 0x60 SWAP2 POP JUMPDEST POP POP SWAP1 POP DUP1 PUSH2 0x92A JUMPI PUSH1 0x40 MLOAD PUSH32 0x8C379A000000000000000000000000000000000000000000000000000000000 DUP2 MSTORE PUSH1 0x4 ADD PUSH2 0x921 SWAP1 PUSH2 0x1C31 JUMP JUMPDEST PUSH1 0x40 MLOAD DUP1 SWAP2 SUB SWAP1 REVERT JUMPDEST CALLER PUSH20 0xFFFFFFFFFFFFFFFFFFFFFFFFFFFFFFFFFFFFFFFF AND DUP3 PUSH20 0xFFFFFFFFFFFFFFFFFFFFFFFFFFFFFFFFFFFFFFFF AND DUP7 PUSH32 0xB659DCCC8EB950324170E8D9598AF5EE04EE070883EB28651A96788721FBF83 PUSH1 0x40 MLOAD PUSH1 0x40 MLOAD DUP1 SWAP2 SUB SWAP1 LOG4 POP POP POP POP POP JUMP JUMPDEST PUSH1 0x0 DUP1 PUSH1 0x0 SWAP1 SLOAD SWAP1 PUSH2 0x100 EXP SWAP1 DIV PUSH20 0xFFFFFFFFFFFFFFFFFFFFFFFFFFFFFFFFFFFFFFFF AND SWAP1 POP SWAP1 JUMP JUMPDEST PUSH1 0x2 PUSH1 0x20 MSTORE DUP1 PUSH1 0x0 MSTORE PUSH1 0x40 PUSH1 0x0 KECCAK256 PUSH1 0x0 SWAP2 POP SLOAD SWAP1 PUSH2 0x100 EXP SWAP1 DIV PUSH1 0xFF AND DUP2 JUMP JUMPDEST PUSH2 0x9DD PUSH2 0xDC3 JUMP JUMPDEST PUSH1 0x0 PUSH20 0xFFFFFFFFFFFFFFFFFFFFFFFFFFFFFFFFFFFFFFFF AND DUP2 PUSH20 0xFFFFFFFFFFFFFFFFFFFFFFFFFFFFFFFFFFFFFFFF AND SUB PUSH2 0xA4F JUMPI PUSH1 0x0 PUSH1 0x40 MLOAD PUSH32 0x1E4FBDF700000000000000000000000000000000000000000000000000000000 DUP2 MSTORE PUSH1 0x4 ADD PUSH2 0xA46 SWAP2 SWAP1 PUSH2 0x146E JUMP JUMPDEST PUSH1 0x40 MLOAD DUP1 SWAP2 SUB SWAP1 REVERT JUMPDEST PUSH2 0xA58 DUP2 PUSH2 0xE4A JUMP JUMPDEST POP JUMP JUMPDEST PUSH2 0xA63 PUSH2 0xF16 JUMP JUMPDEST PUSH1 0x1 PUSH1 0x0 DUP4 DUP2 MSTORE PUSH1 0x20 ADD SWAP1 DUP2 MSTORE PUSH1 0x20 ADD PUSH1 0x0 KECCAK256 PUSH1 0x7 ADD PUSH1 0x14 SWAP1 SLOAD SWAP1 PUSH2 0x100 EXP SWAP1 DIV PUSH1 0xFF AND PUSH2 0xAC6 JUMPI PUSH1 0x40 MLOAD PUSH32 0x8C379A000000000000000000000000000000000000000000000000000000000 DUP2 MSTORE PUSH1 0x4 ADD PUSH2 0xABD SWAP1 PUSH2 0x1B13 JUMP JUMPDEST PUSH1 0x40 MLOAD DUP1 SWAP2 SUB SWAP1 REVERT JUMPDEST PUSH1 0x1 PUSH1 0x0 DUP4 DUP2 MSTORE PUSH1 0x20 ADD SWAP1 DUP2 MSTORE PUSH1 0x20 ADD PUSH1 0x0 KECCAK256 PUSH1 0x40 MLOAD DUP1 PUSH2 0x120 ADD PUSH1 0x40 MSTORE SWAP1 DUP2 PUSH1 0x0 DUP3 ADD DUP1 SLOAD PUSH2 0xAF5 SWAP1 PUSH2 0x169F JUMP JUMPDEST DUP1 PUSH1 0x1F ADD PUSH1 0x20 DUP1 SWAP2 DIV MUL PUSH1 0x20 ADD PUSH1 0x40 MLOAD SWAP1 DUP2 ADD PUSH1 0x40 MSTORE DUP1 SWAP3 SWAP2 SWAP1 DUP2 DUP2 MSTORE PUSH1 0x20 ADD DUP3 DUP1 SLOAD PUSH2 0xB21 SWAP1 PUSH2 0x169F JUMP JUMPDEST DUP1 ISZERO PUSH2 0xB6E JUMPI DUP1 PUSH1 0x1F LT PUSH2 0xB43 JUMPI PUSH2 0x100 DUP1 DUP4 SLOAD DIV MUL DUP4 MSTORE SWAP2 PUSH1 0x20 ADD SWAP2 PUSH2 0xB6E JUMP JUMPDEST DUP3 ADD SWAP2 SWAP1 PUSH1 0x0 MSTORE PUSH1 0x20 PUSH1 0x0 KECCAK256 SWAP1 JUMPDEST DUP2 SLOAD DUP2 MSTORE SWAP1 PUSH1 0x1 ADD SWAP1 PUSH1 0x20 ADD DUP1 DUP4 GT PUSH2 0xB51 JUMPI DUP3 SWAP1 SUB PUSH1 0x1F AND DUP3 ADD SWAP2 JUMPDEST POP POP POP POP POP DUP2 MSTORE PUSH1 0x20 ADD PUSH1 0x1 DUP3 ADD SLOAD DUP2 MSTORE PUSH1 0x20 ADD PUSH1 0x2 DUP3 ADD DUP1 SLOAD PUSH2 0xB91 SWAP1 PUSH2 0x169F JUMP JUMPDEST DUP1 PUSH1 0x1F ADD PUSH1 0x20 DUP1 SWAP2 DIV MUL PUSH1 0x20 ADD PUSH1 0x40 MLOAD SWAP1 DUP2 ADD PUSH1 0x40 MSTORE DUP1 SWAP3 SWAP2 SWAP1 DUP2 DUP2 MSTORE PUSH1 0x20 ADD DUP3 DUP1 SLOAD PUSH2 0xBBD SWAP1 PUSH2 0x169F JUMP JUMPDEST DUP1 ISZERO PUSH2 0xC0A JUMPI DUP1 PUSH1 0x1F LT PUSH2 0xBDF JUMPI PUSH2 0x100 DUP1 DUP4 SLOAD DIV MUL DUP4 MSTORE SWAP2 PUSH1 0x20 ADD SWAP2 PUSH2 0xC0A JUMP JUMPDEST DUP3 ADD SWAP2 SWAP1 PUSH1 0x0 MSTORE PUSH1 0x20 PUSH1 0x0 KECCAK256 SWAP1 JUMPDEST DUP2 SLOAD DUP2 MSTORE SWAP1 PUSH1 0x1 ADD SWAP1 PUSH1 0x20 ADD DUP1 DUP4 GT PUSH2 0xBED JUMPI DUP3 SWAP1 SUB PUSH1 0x1F AND DUP3 ADD SWAP2 JUMPDEST POP POP POP POP POP DUP2 MSTORE PUSH1 0x20 ADD PUSH1 0x3 DUP3 ADD DUP1 SLOAD PUSH2 0xC23 SWAP1 PUSH2 0x169F JUMP JUMPDEST DUP1 PUSH1 0x1F ADD PUSH1 0x20 DUP1 SWAP2 DIV MUL PUSH1 0x20 ADD PUSH1 0x40 MLOAD SWAP1 DUP2 ADD PUSH1 0x40 MSTORE DUP1 SWAP3 SWAP2 SWAP1 DUP2 DUP2 MSTORE PUSH1 0x20 ADD DUP3 DUP1 SLOAD PUSH2 0xC4F SWAP1 PUSH2 0x169F JUMP JUMPDEST DUP1 ISZERO PUSH2 0xC9C JUMPI DUP1 PUSH1 0x1F LT PUSH2 0xC71 JUMPI PUSH2 0x100 DUP1 DUP4 SLOAD DIV MUL DUP4 MSTORE SWAP2 PUSH1 0x20 ADD SWAP2 PUSH2 0xC9C JUMP JUMPDEST DUP3 ADD SWAP2 SWAP1 PUSH1 0x0 MSTORE PUSH1 0x20 PUSH1 0x0 KECCAK256 SWAP1 JUMPDEST DUP2 SLOAD DUP2 MSTORE SWAP1 PUSH1 0x1 ADD SWAP1 PUSH1 0x20 ADD DUP1 DUP4 GT PUSH2 0xC7F JUMPI DUP3 SWAP1 SUB PUSH1 0x1F AND DUP3 ADD SWAP2 JUMPDEST POP POP POP POP POP DUP2 MSTORE PUSH1 0x20 ADD PUSH1 0x4 DUP3 ADD DUP1 SLOAD PUSH2 0xCB5 SWAP1 PUSH2 0x169F JUMP JUMPDEST DUP1 PUSH1 0x1F ADD PUSH1 0x20 DUP1 SWAP2 DIV MUL PUSH1 0x20 ADD PUSH1 0x40 MLOAD SWAP1 DUP2 ADD PUSH1 0x40 MSTORE DUP1 SWAP3 SWAP2 SWAP1 DUP2 DUP2 MSTORE PUSH1 0x20 ADD DUP3 DUP1 SLOAD PUSH2 0xCE1 SWAP1 PUSH2 0x169F JUMP JUMPDEST DUP1 ISZERO PUSH2 0xD2E JUMPI DUP1 PUSH1 0x1F LT PUSH2 0xD03 JUMPI PUSH2 0x100 DUP1 DUP4 SLOAD DIV MUL DUP4 MSTORE SWAP2 PUSH1 0x20 ADD SWAP2 PUSH2 0xD2E JUMP JUMPDEST DUP3 ADD SWAP2 SWAP1 PUSH1 0x0 MSTORE PUSH1 0x20 PUSH1 0x0 KECCAK256 SWAP1 JUMPDEST DUP2 SLOAD DUP2 MSTORE SWAP1 PUSH1 0x1 ADD SWAP1 PUSH1 0x20 ADD DUP1 DUP4 GT PUSH2 0xD11 JUMPI DUP3 SWAP1 SUB PUSH1 0x1F AND DUP3 ADD SWAP2 JUMPDEST POP POP POP POP POP DUP2 MSTORE PUSH1 0x20 ADD PUSH1 0x5 DUP3 ADD SLOAD DUP2 MSTORE PUSH1 0x20 ADD PUSH1 0x6 DUP3 ADD SLOAD DUP2 MSTORE PUSH1 0x20 ADD PUSH1 0x7 DUP3 ADD PUSH1 0x0 SWAP1 SLOAD SWAP1 PUSH2 0x100 EXP SWAP1 DIV PUSH20 0xFFFFFFFFFFFFFFFFFFFFFFFFFFFFFFFFFFFFFFFF AND PUSH20 0xFFFFFFFFFFFFFFFFFFFFFFFFFFFFFFFFFFFFFFFF AND PUSH20 0xFFFFFFFFFFFFFFFFFFFFFFFFFFFFFFFFFFFFFFFF AND DUP2 MSTORE PUSH1 0x20 ADD PUSH1 0x7 DUP3 ADD PUSH1 0x14 SWAP1 SLOAD SWAP1 PUSH2 0x100 EXP SWAP1 DIV PUSH1 0xFF AND ISZERO ISZERO ISZERO ISZERO DUP2 MSTORE POP POP SWAP1 POP SWAP2 SWAP1 POP JUMP JUMPDEST PUSH2 0xDCB PUSH2 0xF0E JUMP JUMPDEST PUSH20 0xFFFFFFFFFFFFFFFFFFFFFFFFFFFFFFFFFFFFFFFF AND PUSH2 0xDE9 PUSH2 0x98C JUMP JUMPDEST PUSH20 0xFFFFFFFFFFFFFFFFFFFFFFFFFFFFFFFFFFFFFFFF AND EQ PUSH2 0xE48 JUMPI PUSH2 0xE0C PUSH2 0xF0E JUMP JUMPDEST PUSH1 0x40 MLOAD PUSH32 0x118CDAA700000000000000000000000000000000000000000000000000000000 DUP2 MSTORE PUSH1 0x4 ADD PUSH2 0xE3F SWAP2 SWAP1 PUSH2 0x146E JUMP JUMPDEST PUSH1 0x40 MLOAD DUP1 SWAP2 SUB SWAP1 REVERT JUMPDEST JUMP JUMPDEST PUSH1 0x0 DUP1 PUSH1 0x0 SWAP1 SLOAD SWAP1 PUSH2 0x100 EXP SWAP1 DIV PUSH20 0xFFFFFFFFFFFFFFFFFFFFFFFFFFFFFFFFFFFFFFFF AND SWAP1 POP DUP2 PUSH1 0x0 DUP1 PUSH2 0x100 EXP DUP2 SLOAD DUP2 PUSH20 0xFFFFFFFFFFFFFFFFFFFFFFFFFFFFFFFFFFFFFFFF MUL NOT AND SWAP1 DUP4 PUSH20 0xFFFFFFFFFFFFFFFFFFFFFFFFFFFFFFFFFFFFFFFF AND MUL OR SWAP1 SSTORE POP DUP2 PUSH20 0xFFFFFFFFFFFFFFFFFFFFFFFFFFFFFFFFFFFFFFFF AND DUP2 PUSH20 0xFFFFFFFFFFFFFFFFFFFFFFFFFFFFFFFFFFFFFFFF AND PUSH32 0x8BE0079C531659141344CD1FD0A4F28419497F9722A3DAAFE3B4186F6B6457E0 PUSH1 0x40 MLOAD PUSH1 0x40 MLOAD DUP1 SWAP2 SUB SWAP1 LOG3 POP POP JUMP JUMPDEST PUSH1 0x0 CALLER SWAP1 POP SWAP1 JUMP JUMPDEST PUSH1 0x40 MLOAD DUP1 PUSH2 0x120 ADD PUSH1 0x40 MSTORE DUP1 PUSH1 0x60 DUP2 MSTORE PUSH1 0x20 ADD PUSH1 0x0 DUP2 MSTORE PUSH1 0x20 ADD PUSH1 0x60 DUP2 MSTORE PUSH1 0x20 ADD PUSH1 0x60 DUP2 MSTORE PUSH1 0x20 ADD PUSH1 0x60 DUP2 MSTORE PUSH1 0x20 ADD PUSH1 0x0 DUP2 MSTORE PUSH1 0x20 ADD PUSH1 0x0 DUP2 MSTORE PUSH1 0x20 ADD PUSH1 0x0 PUSH20 0xFFFFFFFFFFFFFFFFFFFFFFFFFFFFFFFFFFFFFFFF AND DUP2 MSTORE PUSH1 0x20 ADD PUSH1 0x0 ISZERO ISZERO DUP2 MSTORE POP SWAP1 JUMP JUMPDEST PUSH1 0x0 PUSH1 0x40 MLOAD SWAP1 POP SWAP1 JUMP JUMPDEST PUSH1 0x0 DUP1 REVERT JUMPDEST PUSH1 0x0 DUP1 REVERT JUMPDEST PUSH1 0x0 DUP2 SWAP1 POP SWAP2 SWAP1 POP JUMP JUMPDEST PUSH2 0xFA1 DUP2 PUSH2 0xF8E JUMP JUMPDEST DUP2 EQ PUSH2 0xFAC JUMPI PUSH1 0x0 DUP1 REVERT JUMPDEST POP JUMP JUMPDEST PUSH1 0x0 DUP2 CALLDATALOAD SWAP1 POP PUSH2 0xFBE DUP2 PUSH2 0xF98 JUMP JUMPDEST SWAP3 SWAP2 POP POP JUMP JUMPDEST PUSH1 0x0 PUSH1 0x20 DUP3 DUP5 SUB SLT ISZERO PUSH2 0xFDA JUMPI PUSH2 0xFD9 PUSH2 0xF84 JUMP JUMPDEST JUMPDEST PUSH1 0x0 PUSH2 0xFE8 DUP5 DUP3 DUP6 ADD PUSH2 0xFAF JUMP JUMPDEST SWAP2 POP POP SWAP3 SWAP2 POP POP JUMP JUMPDEST PUSH1 0x0 DUP2 MLOAD SWAP1 POP SWAP2 SWAP1 POP JUMP JUMPDEST PUSH1 0x0 DUP3 DUP3 MSTORE PUSH1 0x20 DUP3 ADD SWAP1 POP SWAP3 SWAP2 POP POP JUMP JUMPDEST PUSH1 0x0 JUMPDEST DUP4 DUP2 LT ISZERO PUSH2 0x102B JUMPI DUP1 DUP3 ADD MLOAD DUP2 DUP5 ADD MSTORE PUSH1 0x20 DUP2 ADD SWAP1 POP PUSH2 0x1010 JUMP JUMPDEST PUSH1 0x0 DUP5 DUP5 ADD MSTORE POP POP POP POP JUMP JUMPDEST PUSH1 0x0 PUSH1 0x1F NOT PUSH1 0x1F DUP4 ADD AND SWAP1 POP SWAP2 SWAP1 POP JUMP JUMPDEST PUSH1 0x0 PUSH2 0x1053 DUP3 PUSH2 0xFF1 JUMP JUMPDEST PUSH2 0x105D DUP2 DUP6 PUSH2 0xFFC JUMP JUMPDEST SWAP4 POP PUSH2 0x106D DUP2 DUP6 PUSH1 0x20 DUP7 ADD PUSH2 0x100D JUMP JUMPDEST PUSH2 0x1076 DUP2 PUSH2 0x1037 JUMP JUMPDEST DUP5 ADD SWAP2 POP POP SWAP3 SWAP2 POP POP JUMP JUMPDEST PUSH1 0x0 DUP2 SWAP1 POP SWAP2 SWAP1 POP JUMP JUMPDEST PUSH2 0x1094 DUP2 PUSH2 0x1081 JUMP JUMPDEST DUP3 MSTORE POP POP JUMP JUMPDEST PUSH1 0x0 PUSH20 0xFFFFFFFFFFFFFFFFFFFFFFFFFFFFFFFFFFFFFFFF DUP3 AND SWAP1 POP SWAP2 SWAP1 POP JUMP JUMPDEST PUSH1 0x0 PUSH2 0x10C5 DUP3 PUSH2 0x109A JUMP JUMPDEST SWAP1 POP SWAP2 SWAP1 POP JUMP JUMPDEST PUSH2 0x10D5 DUP2 PUSH2 0x10BA JUMP JUMPDEST DUP3 MSTORE POP POP JUMP JUMPDEST PUSH1 0x0 DUP2 ISZERO ISZERO SWAP1 POP SWAP2 SWAP1 POP JUMP JUMPDEST PUSH2 0x10F0 DUP2 PUSH2 0x10DB JUMP JUMPDEST DUP3 MSTORE POP POP JUMP JUMPDEST PUSH1 0x0 PUSH2 0x120 DUP3 ADD SWAP1 POP DUP2 DUP2 SUB PUSH1 0x0 DUP4 ADD MSTORE PUSH2 0x1111 DUP2 DUP13 PUSH2 0x1048 JUMP JUMPDEST SWAP1 POP PUSH2 0x1120 PUSH1 0x20 DUP4 ADD DUP12 PUSH2 0x108B JUMP JUMPDEST DUP2 DUP2 SUB PUSH1 0x40 DUP4 ADD MSTORE PUSH2 0x1132 DUP2 DUP11 PUSH2 0x1048 JUMP JUMPDEST SWAP1 POP DUP2 DUP2 SUB PUSH1 0x60 DUP4 ADD MSTORE PUSH2 0x1146 DUP2 DUP10 PUSH2 0x1048 JUMP JUMPDEST SWAP1 POP DUP2 DUP2 SUB PUSH1 0x80 DUP4 ADD MSTORE PUSH2 0x115A DUP2 DUP9 PUSH2 0x1048 JUMP JUMPDEST SWAP1 POP PUSH2 0x1169 PUSH1 0xA0 DUP4 ADD DUP8 PUSH2 0x108B JUMP JUMPDEST PUSH2 0x1176 PUSH1 0xC0 DUP4 ADD DUP7 PUSH2 0x108B JUMP JUMPDEST PUSH2 0x1183 PUSH1 0xE0 DUP4 ADD DUP6 PUSH2 0x10CC JUMP JUMPDEST PUSH2 0x1191 PUSH2 0x100 DUP4 ADD DUP5 PUSH2 0x10E7 JUMP JUMPDEST SWAP11 SWAP10 POP POP POP POP POP POP POP POP POP POP JUMP JUMPDEST PUSH1 0x0 DUP1 REVERT JUMPDEST PUSH1 0x0 DUP1 REVERT JUMPDEST PUSH32 0x4E487B7100000000000000000000000000000000000000000000000000000000 PUSH1 0x0 MSTORE PUSH1 0x41 PUSH1 0x4 MSTORE PUSH1 0x24 PUSH1 0x0 REVERT JUMPDEST PUSH2 0x11E1 DUP3 PUSH2 0x1037 JUMP JUMPDEST DUP2 ADD DUP2 DUP2 LT PUSH8 0xFFFFFFFFFFFFFFFF DUP3 GT OR ISZERO PUSH2 0x1200 JUMPI PUSH2 0x11FF PUSH2 0x11A9 JUMP JUMPDEST JUMPDEST DUP1 PUSH1 0x40 MSTORE POP POP POP JUMP JUMPDEST PUSH1 0x0 PUSH2 0x1213 PUSH2 0xF7A JUMP JUMPDEST SWAP1 POP PUSH2 0x121F DUP3 DUP3 PUSH2 0x11D8 JUMP JUMPDEST SWAP2 SWAP1 POP JUMP JUMPDEST PUSH1 0x0 PUSH8 0xFFFFFFFFFFFFFFFF DUP3 GT ISZERO PUSH2 0x123F JUMPI PUSH2 0x123E PUSH2 0x11A9 JUMP JUMPDEST JUMPDEST PUSH2 0x1248 DUP3 PUSH2 0x1037 JUMP JUMPDEST SWAP1 POP PUSH1 0x20 DUP2 ADD SWAP1 POP SWAP2 SWAP1 POP JUMP JUMPDEST DUP3 DUP2 DUP4 CALLDATACOPY PUSH1 0x0 DUP4 DUP4 ADD MSTORE POP POP POP JUMP JUMPDEST PUSH1 0x0 PUSH2 0x1277 PUSH2 0x1272 DUP5 PUSH2 0x1224 JUMP JUMPDEST PUSH2 0x1209 JUMP JUMPDEST SWAP1 POP DUP3 DUP2 MSTORE PUSH1 0x20 DUP2 ADD DUP5 DUP5 DUP5 ADD GT ISZERO PUSH2 0x1293 JUMPI PUSH2 0x1292 PUSH2 0x11A4 JUMP JUMPDEST JUMPDEST PUSH2 0x129E DUP5 DUP3 DUP6 PUSH2 0x1255 JUMP JUMPDEST POP SWAP4 SWAP3 POP POP POP JUMP JUMPDEST PUSH1 0x0 DUP3 PUSH1 0x1F DUP4 ADD SLT PUSH2 0x12BB JUMPI PUSH2 0x12BA PUSH2 0x119F JUMP JUMPDEST JUMPDEST DUP2 CALLDATALOAD PUSH2 0x12CB DUP5 DUP3 PUSH1 0x20 DUP7 ADD PUSH2 0x1264 JUMP JUMPDEST SWAP2 POP POP SWAP3 SWAP2 POP POP JUMP JUMPDEST PUSH2 0x12DD DUP2 PUSH2 0x1081 JUMP JUMPDEST DUP2 EQ PUSH2 0x12E8 JUMPI PUSH1 0x0 DUP1 REVERT JUMPDEST POP JUMP JUMPDEST PUSH1 0x0 DUP2 CALLDATALOAD SWAP1 POP PUSH2 0x12FA DUP2 PUSH2 0x12D4 JUMP JUMPDEST SWAP3 SWAP2 POP POP JUMP JUMPDEST PUSH1 0x0 DUP1 PUSH1 0x0 DUP1 PUSH1 0x0 DUP1 PUSH1 0x0 PUSH1 0xE0 DUP9 DUP11 SUB SLT ISZERO PUSH2 0x131F JUMPI PUSH2 0x131E PUSH2 0xF84 JUMP JUMPDEST JUMPDEST PUSH1 0x0 DUP9 ADD CALLDATALOAD PUSH8 0xFFFFFFFFFFFFFFFF DUP2 GT ISZERO PUSH2 0x133D JUMPI PUSH2 0x133C PUSH2 0xF89 JUMP JUMPDEST JUMPDEST PUSH2 0x1349 DUP11 DUP3 DUP12 ADD PUSH2 0x12A6 JUMP JUMPDEST SWAP8 POP POP PUSH1 0x20 PUSH2 0x135A DUP11 DUP3 DUP12 ADD PUSH2 0x12EB JUMP JUMPDEST SWAP7 POP POP PUSH1 0x40 DUP9 ADD CALLDATALOAD PUSH8 0xFFFFFFFFFFFFFFFF DUP2 GT ISZERO PUSH2 0x137B JUMPI PUSH2 0x137A PUSH2 0xF89 JUMP JUMPDEST JUMPDEST PUSH2 0x1387 DUP11 DUP3 DUP12 ADD PUSH2 0x12A6 JUMP JUMPDEST SWAP6 POP POP PUSH1 0x60 DUP9 ADD CALLDATALOAD PUSH8 0xFFFFFFFFFFFFFFFF DUP2 GT ISZERO PUSH2 0x13A8 JUMPI PUSH2 0x13A7 PUSH2 0xF89 JUMP JUMPDEST JUMPDEST PUSH2 0x13B4 DUP11 DUP3 DUP12 ADD PUSH2 0x12A6 JUMP JUMPDEST SWAP5 POP POP PUSH1 0x80 DUP9 ADD CALLDATALOAD PUSH8 0xFFFFFFFFFFFFFFFF DUP2 GT ISZERO PUSH2 0x13D5 JUMPI PUSH2 0x13D4 PUSH2 0xF89 JUMP JUMPDEST JUMPDEST PUSH2 0x13E1 DUP11 DUP3 DUP12 ADD PUSH2 0x12A6 JUMP JUMPDEST SWAP4 POP POP PUSH1 0xA0 PUSH2 0x13F2 DUP11 DUP3 DUP12 ADD PUSH2 0x12EB JUMP JUMPDEST SWAP3 POP POP PUSH1 0xC0 PUSH2 0x1403 DUP11 DUP3 DUP12 ADD PUSH2 0x12EB JUMP JUMPDEST SWAP2 POP POP SWAP3 SWAP6 SWAP9 SWAP2 SWAP5 SWAP8 POP SWAP3 SWAP6 POP JUMP JUMPDEST PUSH1 0x0 DUP1 PUSH1 0x40 DUP4 DUP6 SUB SLT ISZERO PUSH2 0x1429 JUMPI PUSH2 0x1428 PUSH2 0xF84 JUMP JUMPDEST JUMPDEST PUSH1 0x0 PUSH2 0x1437 DUP6 DUP3 DUP7 ADD PUSH2 0xFAF JUMP JUMPDEST SWAP3 POP POP PUSH1 0x20 DUP4 ADD CALLDATALOAD PUSH8 0xFFFFFFFFFFFFFFFF DUP2 GT ISZERO PUSH2 0x1458 JUMPI PUSH2 0x1457 PUSH2 0xF89 JUMP JUMPDEST JUMPDEST PUSH2 0x1464 DUP6 DUP3 DUP7 ADD PUSH2 0x12A6 JUMP JUMPDEST SWAP2 POP POP SWAP3 POP SWAP3 SWAP1 POP JUMP JUMPDEST PUSH1 0x0 PUSH1 0x20 DUP3 ADD SWAP1 POP PUSH2 0x1483 PUSH1 0x0 DUP4 ADD DUP5 PUSH2 0x10CC JUMP JUMPDEST SWAP3 SWAP2 POP POP JUMP JUMPDEST PUSH1 0x0 PUSH1 0x20 DUP3 ADD SWAP1 POP PUSH2 0x149E PUSH1 0x0 DUP4 ADD DUP5 PUSH2 0x10E7 JUMP JUMPDEST SWAP3 SWAP2 POP POP JUMP JUMPDEST PUSH2 0x14AD DUP2 PUSH2 0x10BA JUMP JUMPDEST DUP2 EQ PUSH2 0x14B8 JUMPI PUSH1 0x0 DUP1 REVERT JUMPDEST POP JUMP JUMPDEST PUSH1 0x0 DUP2 CALLDATALOAD SWAP1 POP PUSH2 0x14CA DUP2 PUSH2 0x14A4 JUMP JUMPDEST SWAP3 SWAP2 POP POP JUMP JUMPDEST PUSH1 0x0 PUSH1 0x20 DUP3 DUP5 SUB SLT ISZERO PUSH2 0x14E6 JUMPI PUSH2 0x14E5 PUSH2 0xF84 JUMP JUMPDEST JUMPDEST PUSH1 0x0 PUSH2 0x14F4 DUP5 DUP3 DUP6 ADD PUSH2 0x14BB JUMP JUMPDEST SWAP2 POP POP SWAP3 SWAP2 POP POP JUMP JUMPDEST PUSH1 0x0 DUP3 DUP3 MSTORE PUSH1 0x20 DUP3 ADD SWAP1 POP SWAP3 SWAP2 POP POP JUMP JUMPDEST PUSH1 0x0 PUSH2 0x1519 DUP3 PUSH2 0xFF1 JUMP JUMPDEST PUSH2 0x1523 DUP2 DUP6 PUSH2 0x14FD JUMP JUMPDEST SWAP4 POP PUSH2 0x1533 DUP2 DUP6 PUSH1 0x20 DUP7 ADD PUSH2 0x100D JUMP JUMPDEST PUSH2 0x153C DUP2 PUSH2 0x1037 JUMP JUMPDEST DUP5 ADD SWAP2 POP POP SWAP3 SWAP2 POP POP JUMP JUMPDEST PUSH2 0x1550 DUP2 PUSH2 0x1081 JUMP JUMPDEST DUP3 MSTORE POP POP JUMP JUMPDEST PUSH2 0x155F DUP2 PUSH2 0x10BA JUMP JUMPDEST DUP3 MSTORE POP POP JUMP JUMPDEST PUSH2 0x156E DUP2 PUSH2 0x10DB JUMP JUMPDEST DUP3 MSTORE POP POP JUMP JUMPDEST PUSH1 0x0 PUSH2 0x120 DUP4 ADD PUSH1 0x0 DUP4 ADD MLOAD DUP5 DUP3 SUB PUSH1 0x0 DUP7 ADD MSTORE PUSH2 0x1592 DUP3 DUP3 PUSH2 0x150E JUMP JUMPDEST SWAP2 POP POP PUSH1 0x20 DUP4 ADD MLOAD PUSH2 0x15A7 PUSH1 0x20 DUP7 ADD DUP3 PUSH2 0x1547 JUMP JUMPDEST POP PUSH1 0x40 DUP4 ADD MLOAD DUP5 DUP3 SUB PUSH1 0x40 DUP7 ADD MSTORE PUSH2 0x15BF DUP3 DUP3 PUSH2 0x150E JUMP JUMPDEST SWAP2 POP POP PUSH1 0x60 DUP4 ADD MLOAD DUP5 DUP3 SUB PUSH1 0x60 DUP7 ADD MSTORE PUSH2 0x15D9 DUP3 DUP3 PUSH2 0x150E JUMP JUMPDEST SWAP2 POP POP PUSH1 0x80 DUP4 ADD MLOAD DUP5 DUP3 SUB PUSH1 0x80 DUP7 ADD MSTORE PUSH2 0x15F3 DUP3 DUP3 PUSH2 0x150E JUMP JUMPDEST SWAP2 POP POP PUSH1 0xA0 DUP4 ADD MLOAD PUSH2 0x1608 PUSH1 0xA0 DUP7 ADD DUP3 PUSH2 0x1547 JUMP JUMPDEST POP PUSH1 0xC0 DUP4 ADD MLOAD PUSH2 0x161B PUSH1 0xC0 DUP7 ADD DUP3 PUSH2 0x1547 JUMP JUMPDEST POP PUSH1 0xE0 DUP4 ADD MLOAD PUSH2 0x162E PUSH1 0xE0 DUP7 ADD DUP3 PUSH2 0x1556 JUMP JUMPDEST POP PUSH2 0x100 DUP4 ADD MLOAD PUSH2 0x1643 PUSH2 0x100 DUP7 ADD DUP3 PUSH2 0x1565 JUMP JUMPDEST POP DUP1 SWAP2 POP POP SWAP3 SWAP2 POP POP JUMP JUMPDEST PUSH1 0x0 PUSH1 0x20 DUP3 ADD SWAP1 POP DUP2 DUP2 SUB PUSH1 0x0 DUP4 ADD MSTORE PUSH2 0x1668 DUP2 DUP5 PUSH2 0x1574 JUMP JUMPDEST SWAP1 POP SWAP3 SWAP2 POP POP JUMP JUMPDEST PUSH32 0x4E487B7100000000000000000000000000000000000000000000000000000000 PUSH1 0x0 MSTORE PUSH1 0x22 PUSH1 0x4 MSTORE PUSH1 0x24 PUSH1 0x0 REVERT JUMPDEST PUSH1 0x0 PUSH1 0x2 DUP3 DIV SWAP1 POP PUSH1 0x1 DUP3 AND DUP1 PUSH2 0x16B7 JUMPI PUSH1 0x7F DUP3 AND SWAP2 POP JUMPDEST PUSH1 0x20 DUP3 LT DUP2 SUB PUSH2 0x16CA JUMPI PUSH2 0x16C9 PUSH2 0x1670 JUMP JUMPDEST JUMPDEST POP SWAP2 SWAP1 POP JUMP JUMPDEST PUSH1 0x0 DUP2 SWAP1 POP SWAP2 SWAP1 POP JUMP JUMPDEST PUSH2 0x16EB PUSH2 0x16E6 DUP3 PUSH2 0x1081 JUMP JUMPDEST PUSH2 0x16D0 JUMP JUMPDEST DUP3 MSTORE POP POP JUMP JUMPDEST PUSH1 0x0 DUP2 SWAP1 POP SWAP3 SWAP2 POP POP JUMP JUMPDEST PUSH1 0x0 PUSH2 0x1707 DUP3 PUSH2 0xFF1 JUMP JUMPDEST PUSH2 0x1711 DUP2 DUP6 PUSH2 0x16F1 JUMP JUMPDEST SWAP4 POP PUSH2 0x1721 DUP2 DUP6 PUSH1 0x20 DUP7 ADD PUSH2 0x100D JUMP JUMPDEST DUP1 DUP5 ADD SWAP2 POP POP SWAP3 SWAP2 POP POP JUMP JUMPDEST PUSH1 0x0 PUSH2 0x1739 DUP3 DUP10 PUSH2 0x16DA JUMP JUMPDEST PUSH1 0x20 DUP3 ADD SWAP2 POP PUSH2 0x1749 DUP3 DUP9 PUSH2 0x16FC JUMP JUMPDEST SWAP2 POP PUSH2 0x1755 DUP3 DUP8 PUSH2 0x16FC JUMP JUMPDEST SWAP2 POP PUSH2 0x1761 DUP3 DUP7 PUSH2 0x16FC JUMP JUMPDEST SWAP2 POP PUSH2 0x176D DUP3 DUP6 PUSH2 0x16DA JUMP JUMPDEST PUSH1 0x20 DUP3 ADD SWAP2 POP PUSH2 0x177D DUP3 DUP5 PUSH2 0x16DA JUMP JUMPDEST PUSH1 0x20 DUP3 ADD SWAP2 POP DUP2 SWAP1 POP SWAP8 SWAP7 POP POP POP POP POP POP POP JUMP JUMPDEST PUSH32 0x4C616E6420616C72656164792072656769737465726564000000000000000000 PUSH1 0x0 DUP3 ADD MSTORE POP JUMP JUMPDEST PUSH1 0x0 PUSH2 0x17C7 PUSH1 0x17 DUP4 PUSH2 0xFFC JUMP JUMPDEST SWAP2 POP PUSH2 0x17D2 DUP3 PUSH2 0x1791 JUMP JUMPDEST PUSH1 0x20 DUP3 ADD SWAP1 POP SWAP2 SWAP1 POP JUMP JUMPDEST PUSH1 0x0 PUSH1 0x20 DUP3 ADD SWAP1 POP DUP2 DUP2 SUB PUSH1 0x0 DUP4 ADD MSTORE PUSH2 0x17F6 DUP2 PUSH2 0x17BA JUMP JUMPDEST SWAP1 POP SWAP2 SWAP1 POP JUMP JUMPDEST PUSH1 0x0 DUP2 SWAP1 POP DUP2 PUSH1 0x0 MSTORE PUSH1 0x20 PUSH1 0x0 KECCAK256 SWAP1 POP SWAP2 SWAP1 POP JUMP JUMPDEST PUSH1 0x0 PUSH1 0x20 PUSH1 0x1F DUP4 ADD DIV SWAP1 POP SWAP2 SWAP1 POP JUMP JUMPDEST PUSH1 0x0 DUP3 DUP3 SHL SWAP1 POP SWAP3 SWAP2 POP POP JUMP JUMPDEST PUSH1 0x0 PUSH1 0x8 DUP4 MUL PUSH2 0x185F PUSH32 0xFFFFFFFFFFFFFFFFFFFFFFFFFFFFFFFFFFFFFFFFFFFFFFFFFFFFFFFFFFFFFFFF DUP3 PUSH2 0x1822 JUMP JUMPDEST PUSH2 0x1869 DUP7 DUP4 PUSH2 0x1822 JUMP JUMPDEST SWAP6 POP DUP1 NOT DUP5 AND SWAP4 POP DUP1 DUP7 AND DUP5 OR SWAP3 POP POP POP SWAP4 SWAP3 POP POP POP JUMP JUMPDEST PUSH1 0x0 DUP2 SWAP1 POP SWAP2 SWAP1 POP JUMP JUMPDEST PUSH1 0x0 PUSH2 0x18A6 PUSH2 0x18A1 PUSH2 0x189C DUP5 PUSH2 0x1081 JUMP JUMPDEST PUSH2 0x1881 JUMP JUMPDEST PUSH2 0x1081 JUMP JUMPDEST SWAP1 POP SWAP2 SWAP1 POP JUMP JUMPDEST PUSH1 0x0 DUP2 SWAP1 POP SWAP2 SWAP1 POP JUMP JUMPDEST PUSH2 0x18C0 DUP4 PUSH2 0x188B JUMP JUMPDEST PUSH2 0x18D4 PUSH2 0x18CC DUP3 PUSH2 0x18AD JUMP JUMPDEST DUP5 DUP5 SLOAD PUSH2 0x182F JUMP JUMPDEST DUP3 SSTORE POP POP POP POP JUMP JUMPDEST PUSH1 0x0 SWAP1 JUMP JUMPDEST PUSH2 0x18E9 PUSH2 0x18DC JUMP JUMPDEST PUSH2 0x18F4 DUP2 DUP5 DUP5 PUSH2 0x18B7 JUMP JUMPDEST POP POP POP JUMP JUMPDEST JUMPDEST DUP2 DUP2 LT ISZERO PUSH2 0x1918 JUMPI PUSH2 0x190D PUSH1 0x0 DUP3 PUSH2 0x18E1 JUMP JUMPDEST PUSH1 0x1 DUP2 ADD SWAP1 POP PUSH2 0x18FA JUMP JUMPDEST POP POP JUMP JUMPDEST PUSH1 0x1F DUP3 GT ISZERO PUSH2 0x195D JUMPI PUSH2 0x192E DUP2 PUSH2 0x17FD JUMP JUMPDEST PUSH2 0x1937 DUP5 PUSH2 0x1812 JUMP JUMPDEST DUP2 ADD PUSH1 0x20 DUP6 LT ISZERO PUSH2 0x1946 JUMPI DUP2 SWAP1 POP JUMPDEST PUSH2 0x195A PUSH2 0x1952 DUP6 PUSH2 0x1812 JUMP JUMPDEST DUP4 ADD DUP3 PUSH2 0x18F9 JUMP JUMPDEST POP POP JUMPDEST POP POP POP JUMP JUMPDEST PUSH1 0x0 DUP3 DUP3 SHR SWAP1 POP SWAP3 SWAP2 POP POP JUMP JUMPDEST PUSH1 0x0 PUSH2 0x1980 PUSH1 0x0 NOT DUP5 PUSH1 0x8 MUL PUSH2 0x1962 JUMP JUMPDEST NOT DUP1 DUP4 AND SWAP2 POP POP SWAP3 SWAP2 POP POP JUMP JUMPDEST PUSH1 0x0 PUSH2 0x1999 DUP4 DUP4 PUSH2 0x196F JUMP JUMPDEST SWAP2 POP DUP3 PUSH1 0x2 MUL DUP3 OR SWAP1 POP SWAP3 SWAP2 POP POP JUMP JUMPDEST PUSH2 0x19B2 DUP3 PUSH2 0xFF1 JUMP JUMPDEST PUSH8 0xFFFFFFFFFFFFFFFF DUP2 GT ISZERO PUSH2 0x19CB JUMPI PUSH2 0x19CA PUSH2 0x11A9 JUMP JUMPDEST JUMPDEST PUSH2 0x19D5 DUP3 SLOAD PUSH2 0x169F JUMP JUMPDEST PUSH2 0x19E0 DUP3 DUP3 DUP6 PUSH2 0x191C JUMP JUMPDEST PUSH1 0x0 PUSH1 0x20 SWAP1 POP PUSH1 0x1F DUP4 GT PUSH1 0x1 DUP2 EQ PUSH2 0x1A13 JUMPI PUSH1 0x0 DUP5 ISZERO PUSH2 0x1A01 JUMPI DUP3 DUP8 ADD MLOAD SWAP1 POP JUMPDEST PUSH2 0x1A0B DUP6 DUP3 PUSH2 0x198D JUMP JUMPDEST DUP7 SSTORE POP PUSH2 0x1A73 JUMP JUMPDEST PUSH1 0x1F NOT DUP5 AND PUSH2 0x1A21 DUP7 PUSH2 0x17FD JUMP JUMPDEST PUSH1 0x0 JUMPDEST DUP3 DUP2 LT ISZERO PUSH2 0x1A49 JUMPI DUP5 DUP10 ADD MLOAD DUP3 SSTORE PUSH1 0x1 DUP3 ADD SWAP2 POP PUSH1 0x20 DUP6 ADD SWAP5 POP PUSH1 0x20 DUP2 ADD SWAP1 POP PUSH2 0x1A24 JUMP JUMPDEST DUP7 DUP4 LT ISZERO PUSH2 0x1A66 JUMPI DUP5 DUP10 ADD MLOAD PUSH2 0x1A62 PUSH1 0x1F DUP10 AND DUP3 PUSH2 0x196F JUMP JUMPDEST DUP4 SSTORE POP JUMPDEST PUSH1 0x1 PUSH1 0x2 DUP9 MUL ADD DUP9 SSTORE POP POP POP JUMPDEST POP POP POP POP POP POP JUMP JUMPDEST PUSH1 0x0 PUSH1 0x20 DUP3 ADD SWAP1 POP DUP2 DUP2 SUB PUSH1 0x0 DUP4 ADD MSTORE PUSH2 0x1A95 DUP2 DUP5 PUSH2 0x1048 JUMP JUMPDEST SWAP1 POP SWAP3 SWAP2 POP POP JUMP JUMPDEST PUSH2 0x1AA6 DUP2 PUSH2 0xF8E JUMP JUMPDEST DUP3 MSTORE POP POP JUMP JUMPDEST PUSH1 0x0 PUSH1 0x20 DUP3 ADD SWAP1 POP PUSH2 0x1AC1 PUSH1 0x0 DUP4 ADD DUP5 PUSH2 0x1A9D JUMP JUMPDEST SWAP3 SWAP2 POP POP JUMP JUMPDEST PUSH32 0x4C616E6420646F6573206E6F7420657869737400000000000000000000000000 PUSH1 0x0 DUP3 ADD MSTORE POP JUMP JUMPDEST PUSH1 0x0 PUSH2 0x1AFD PUSH1 0x13 DUP4 PUSH2 0xFFC JUMP JUMPDEST SWAP2 POP PUSH2 0x1B08 DUP3 PUSH2 0x1AC7 JUMP JUMPDEST PUSH1 0x20 DUP3 ADD SWAP1 POP SWAP2 SWAP1 POP JUMP JUMPDEST PUSH1 0x0 PUSH1 0x20 DUP3 ADD SWAP1 POP DUP2 DUP2 SUB PUSH1 0x0 DUP4 ADD MSTORE PUSH2 0x1B2C DUP2 PUSH2 0x1AF0 JUMP JUMPDEST SWAP1 POP SWAP2 SWAP1 POP JUMP JUMPDEST PUSH32 0x4D757374207061792065786163746C7920302E3031204D415449430000000000 PUSH1 0x0 DUP3 ADD MSTORE POP JUMP JUMPDEST PUSH1 0x0 PUSH2 0x1B69 PUSH1 0x1B DUP4 PUSH2 0xFFC JUMP JUMPDEST SWAP2 POP PUSH2 0x1B74 DUP3 PUSH2 0x1B33 JUMP JUMPDEST PUSH1 0x20 DUP3 ADD SWAP1 POP SWAP2 SWAP1 POP JUMP JUMPDEST PUSH1 0x0 PUSH1 0x20 DUP3 ADD SWAP1 POP DUP2 DUP2 SUB PUSH1 0x0 DUP4 ADD MSTORE PUSH2 0x1B98 DUP2 PUSH2 0x1B5C JUMP JUMPDEST SWAP1 POP SWAP2 SWAP1 POP JUMP JUMPDEST PUSH1 0x0 DUP2 SWAP1 POP SWAP3 SWAP2 POP POP JUMP JUMPDEST POP JUMP JUMPDEST PUSH1 0x0 PUSH2 0x1BBA PUSH1 0x0 DUP4 PUSH2 0x1B9F JUMP JUMPDEST SWAP2 POP PUSH2 0x1BC5 DUP3 PUSH2 0x1BAA JUMP JUMPDEST PUSH1 0x0 DUP3 ADD SWAP1 POP SWAP2 SWAP1 POP JUMP JUMPDEST PUSH1 0x0 PUSH2 0x1BDB DUP3 PUSH2 0x1BAD JUMP JUMPDEST SWAP2 POP DUP2 SWAP1 POP SWAP2 SWAP1 POP JUMP JUMPDEST PUSH32 0x4D41544943207472616E73666572206661696C65640000000000000000000000 PUSH1 0x0 DUP3 ADD MSTORE POP JUMP JUMPDEST PUSH1 0x0 PUSH2 0x1C1B PUSH1 0x15 DUP4 PUSH2 0xFFC JUMP JUMPDEST SWAP2 POP PUSH2 0x1C26 DUP3 PUSH2 0x1BE5 JUMP JUMPDEST PUSH1 0x20 DUP3 ADD SWAP1 POP SWAP2 SWAP1 POP JUMP JUMPDEST PUSH1 0x0 PUSH1 0x20 DUP3 ADD SWAP1 POP DUP2 DUP2 SUB PUSH1 0x0 DUP4 ADD MSTORE PUSH2 0x1C4A DUP2 PUSH2 0x1C0E JUMP JUMPDEST SWAP1 POP SWAP2 SWAP1 POP JUMP INVALID LOG2 PUSH5 0x6970667358 0x22 SLT KECCAK256 0xB6 DUP13 0xA7 MULMOD 0xC6 JUMPDEST SWAP6 TLOAD SLT 0xCE 0x2D 0xE2 LOG3 PC PUSH20 0x39F707CC856E43547F1FA3501574F1546A64736F PUSH13 0x634300081C0033000000000000 "
        },
        "methodIdentifiers": {
          "getLand(bytes32)": "f987cd9e",
          "landExists(bytes32)": "a89dae82",
          "lands(bytes32)": "139e38b4",
          "owner()": "8da5cb5b",
          "registerLand(string,uint256,string,string,string,uint256,uint256)": "16f72470",
          "renounceOwnership()": "715018a6",
          "transferLandOwnership(bytes32,string)": "84bec660",
          "transferOwnership(address)": "f2fde38b"
        }
      }
    }
  }
}