{
  "_format": "hh-sol-artifact-1",
  "contractName": "LandRegistry",
  "sourceName": "contracts/LandRegistry.sol",
  "abi": [
    {
      "inputs": [],
      "stateMutability": "nonpayable",
      "type": "constructor"
    },
    {
      "inputs": [
        {
          "internalType": "address",
          "name": "owner",
          "type": "address"
        }
      ],
      "name": "OwnableInvalidOwner",
      "type": "error"
    },
    {
      "inputs": [
        {
          "internalType": "address",
          "name": "account",
          "type": "address"
        }
      ],
      "name": "OwnableUnauthorizedAccount",
      "type": "error"
    },
    {
      "anonymous": false,
      "inputs": [
        {
          "indexed": true,
          "internalType": "bytes32",
          "name": "landId",
          "type": "bytes32"
        },
        {
          "indexed": false,
          "internalType": "string",
          "name": "newDocumentHash",
          "type": "string"
        }
      ],
      "name": "DocumentUpdated",
      "type": "event"
    },
    {
      "anonymous": false,
      "inputs": [
        {
          "indexed": true,
          "internalType": "bytes32",
          "name": "landId",
          "type": "bytes32"
        },
        {
          "indexed": true,
          "internalType": "address",
          "name": "owner",
          "type": "address"
        },
        {
          "indexed": false,
          "internalType": "string",
          "name": "ownerName",
          "type": "string"
        },
        {
          "indexed": false,
          "internalType": "string",
          "name": "documentHash",
          "type": "string"
        }
      ],
      "name": "LandRegistered",
      "type": "event"
    },
    {
      "anonymous": false,
      "inputs": [
        {
          "indexed": true,
          "internalType": "address",
          "name": "previousOwner",
          "type": "address"
        },
        {
          "indexed": true,
          "internalType": "address",
          "name": "newOwner",
          "type": "address"
        }
      ],
      "name": "OwnershipTransferred",
      "type": "event"
    },
    {
      "anonymous": false,
      "inputs": [
        {
          "indexed": true,
          "internalType": "bytes32",
          "name": "landId",
          "type": "bytes32"
        },
        {
          "indexed": true,
          "internalType": "address",
          "name": "from",
          "type": "address"
        },
        {
          "indexed": true,
          "internalType": "address",
          "name": "to",
          "type": "address"
        }
      ],
      "name": "OwnershipTransferred",
      "type": "event"
    },
    {
      "inputs": [
        {
          "internalType": "bytes32",
          "name": "_landId",
          "type": "bytes32"
        }
      ],
      "name": "getLand",
      "outputs": [
        {
          "internalType": "string",
          "name": "",
          "type": "string"
        },
        {
          "internalType": "uint256",
          "name": "",
          "type": "uint256"
        },
        {
          "internalType": "string",
          "name": "",
          "type": "string"
        },
        {
          "internalType": "string",
          "name": "",
          "type": "string"
        },
        {
          "internalType": "string",
          "name": "",
          "type": "string"
        },
        {
          "internalType": "uint256",
          "name": "",
          "type": "uint256"
        },
        {
          "internalType": "uint256",
          "name": "",
          "type": "uint256"
        },
        {
          "internalType": "address",
          "name": "",
          "type": "address"
        },
        {
          "internalType": "string",
          "name": "",
          "type": "string"
        }
      ],
      "stateMutability": "view",
      "type": "function"
    },
    {
      "inputs": [
        {
          "internalType": "address",
          "name": "_owner",
          "type": "address"
        }
      ],
      "name": "getLandsByOwner",
      "outputs": [
        {
          "internalType": "bytes32[]",
          "name": "",
          "type": "bytes32[]"
        }
      ],
      "stateMutability": "view",
      "type": "function"
    },
    {
      "inputs": [
        {
          "internalType": "bytes32",
          "name": "",
          "type": "bytes32"
        }
      ],
      "name": "landExists",
      "outputs": [
        {
          "internalType": "bool",
          "name": "",
          "type": "bool"
        }
      ],
      "stateMutability": "view",
      "type": "function"
    },
    {
      "inputs": [
        {
          "internalType": "bytes32",
          "name": "",
          "type": "bytes32"
        }
      ],
      "name": "lands",
      "outputs": [
        {
          "internalType": "string",
          "name": "ownerName",
          "type": "string"
        },
        {
          "internalType": "uint256",
          "name": "landArea",
          "type": "uint256"
        },
        {
          "internalType": "string",
          "name": "district",
          "type": "string"
        },
        {
          "internalType": "string",
          "name": "taluk",
          "type": "string"
        },
        {
          "internalType": "string",
          "name": "village",
          "type": "string"
        },
        {
          "internalType": "uint256",
          "name": "blockNumber",
          "type": "uint256"
        },
        {
          "internalType": "uint256",
          "name": "surveyNumber",
          "type": "uint256"
        },
        {
          "internalType": "address",
          "name": "ownerAddress",
          "type": "address"
        },
        {
          "internalType": "bool",
          "name": "exists",
          "type": "bool"
        },
        {
          "internalType": "string",
          "name": "documentHash",
          "type": "string"
        }
      ],
      "stateMutability": "view",
      "type": "function"
    },
    {
      "inputs": [],
      "name": "owner",
      "outputs": [
        {
          "internalType": "address",
          "name": "",
          "type": "address"
        }
      ],
      "stateMutability": "view",
      "type": "function"
    },
    {
      "inputs": [
        {
          "internalType": "address",
          "name": "",
          "type": "address"
        },
        {
          "internalType": "uint256",
          "name": "",
          "type": "uint256"
        }
      ],
      "name": "ownerLands",
      "outputs": [
        {
          "internalType": "bytes32",
          "name": "",
          "type": "bytes32"
        }
      ],
      "stateMutability": "view",
      "type": "function"
    },
    {
      "inputs": [
        {
          "internalType": "string",
          "name": "_ownerName",
          "type": "string"
        },
        {
          "internalType": "uint256",
          "name": "_landArea",
          "type": "uint256"
        },
        {
          "internalType": "string",
          "name": "_district",
          "type": "string"
        },
        {
          "internalType": "string",
          "name": "_taluk",
          "type": "string"
        },
        {
          "internalType": "string",
          "name": "_village",
          "type": "string"
        },
        {
          "internalType": "uint256",
          "name": "_blockNumber",
          "type": "uint256"
        },
        {
          "internalType": "uint256",
          "name": "_surveyNumber",
          "type": "uint256"
        },
        {
          "internalType": "string",
          "name": "_documentHash",
          "type": "string"
        }
      ],
      "name": "registerLand",
      "outputs": [],
      "stateMutability": "nonpayable",
      "type": "function"
    },
    {
      "inputs": [],
      "name": "renounceOwnership",
      "outputs": [],
      "stateMutability": "nonpayable",
      "type": "function"
    },
    {
      "inputs": [
        {
          "internalType": "bytes32",
          "name": "_landId",
          "type": "bytes32"
        },
        {
          "internalType": "address",
          "name": "_newOwner",
          "type": "address"
        }
      ],
      "name": "transferOwnership",
      "outputs": [],
      "stateMutability": "payable",
      "type": "function"
    },
    {
      "inputs": [
        {
          "internalType": "address",
          "name": "newOwner",
          "type": "address"
        }
      ],
      "name": "transferOwnership",
      "outputs": [],
      "stateMutability": "nonpayable",
      "type": "function"
    },
    {
      "inputs": [
        {
          "internalType": "bytes32",
          "name": "_landId",
          "type": "bytes32"
        },
        {
          "internalType": "string",
          "name": "_newDocumentHash",
          "type": "string"
        }
      ],
      "name": "updateDocumentHash",
      "outputs": [],
      "stateMutability": "nonpayable",
      "type": "function"
    }
  ],
  "bytecode": "0x608060405234801561001057600080fd5b5033600073ffffffffffffffffffffffffffffffffffffffff168173ffffffffffffffffffffffffffffffffffffffff16036100845760006040517f1e4fbdf700000000000000000000000000000000000000000000000000000000815260040161007b919061019e565b60405180910390fd5b6100938161009960201b60201c565b506101b9565b60008060009054906101000a900473ffffffffffffffffffffffffffffffffffffffff169050816000806101000a81548173ffffffffffffffffffffffffffffffffffffffff021916908373ffffffffffffffffffffffffffffffffffffffff1602179055508173ffffffffffffffffffffffffffffffffffffffff168173ffffffffffffffffffffffffffffffffffffffff167f8be0079c531659141344cd1fd0a4f28419497f9722a3daafe3b4186f6b6457e060405160405180910390a35050565b600073ffffffffffffffffffffffffffffffffffffffff82169050919050565b60006101888261015d565b9050919050565b6101988161017d565b82525050565b60006020820190506101b3600083018461018f565b92915050565b61270e806101c86000396000f3fe60806040526004361061009c5760003560e01c8063d0dea6e211610064578063d0dea6e2146101a3578063dbda1292146101e0578063ef5d6bbb14610209578063f2fde38b14610225578063f987cd9e1461024e578063fd9d3dbe146102935761009c565b8063139e38b4146100a1578063455b9d23146100e7578063715018a6146101245780638da5cb5b1461013b578063a89dae8214610166575b600080fd5b3480156100ad57600080fd5b506100c860048036038101906100c391906116c0565b6102bc565b6040516100de9a999897969594939291906117f2565b60405180910390f35b3480156100f357600080fd5b5061010e600480360381019061010991906118dd565b6105e5565b60405161011b91906119c8565b60405180910390f35b34801561013057600080fd5b5061013961067c565b005b34801561014757600080fd5b50610150610690565b60405161015d91906119ea565b60405180910390f35b34801561017257600080fd5b5061018d600480360381019061018891906116c0565b6106b9565b60405161019a9190611a05565b60405180910390f35b3480156101af57600080fd5b506101ca60048036038101906101c59190611a4c565b6106d9565b6040516101d79190611a9b565b60405180910390f35b3480156101ec57600080fd5b5061020760048036038101906102029190611beb565b61070a565b005b610223600480360381019061021e9190611d2d565b610a3c565b005b34801561023157600080fd5b5061024c600480360381019061024791906118dd565b610d64565b005b34801561025a57600080fd5b50610275600480360381019061027091906116c0565b610dea565b60405161028a99989796959493929190611d6d565b60405180910390f35b34801561029f57600080fd5b506102ba60048036038101906102b59190611e1d565b611237565b005b60016020528060005260406000206000915090508060000180546102df90611ea8565b80601f016020809104026020016040519081016040528092919081815260200182805461030b90611ea8565b80156103585780601f1061032d57610100808354040283529160200191610358565b820191906000526020600020905b81548152906001019060200180831161033b57829003601f168201915b50505050509080600101549080600201805461037390611ea8565b80601f016020809104026020016040519081016040528092919081815260200182805461039f90611ea8565b80156103ec5780601f106103c1576101008083540402835291602001916103ec565b820191906000526020600020905b8154815290600101906020018083116103cf57829003601f168201915b50505050509080600301805461040190611ea8565b80601f016020809104026020016040519081016040528092919081815260200182805461042d90611ea8565b801561047a5780601f1061044f5761010080835404028352916020019161047a565b820191906000526020600020905b81548152906001019060200180831161045d57829003601f168201915b50505050509080600401805461048f90611ea8565b80601f01602080910402602001604051908101604052809291908181526020018280546104bb90611ea8565b80156105085780601f106104dd57610100808354040283529160200191610508565b820191906000526020600020905b8154815290600101906020018083116104eb57829003601f168201915b5050505050908060050154908060060154908060070160009054906101000a900473ffffffffffffffffffffffffffffffffffffffff16908060070160149054906101000a900460ff169080600801805461056290611ea8565b80601f016020809104026020016040519081016040528092919081815260200182805461058e90611ea8565b80156105db5780601f106105b0576101008083540402835291602001916105db565b820191906000526020600020905b8154815290600101906020018083116105be57829003601f168201915b505050505090508a565b6060600360008373ffffffffffffffffffffffffffffffffffffffff1673ffffffffffffffffffffffffffffffffffffffff16815260200190815260200160002080548060200260200160405190810160405280929190818152602001828054801561067057602002820191906000526020600020905b81548152602001906001019080831161065c575b50505050509050919050565b61068461141f565b61068e60006114a6565b565b60008060009054906101000a900473ffffffffffffffffffffffffffffffffffffffff16905090565b60026020528060005260406000206000915054906101000a900460ff1681565b600360205281600052604060002081815481106106f557600080fd5b90600052602060002001600091509150505481565b600087878787878760405160200161072796959493929190611f36565b6040516020818303038152906040528051906020012090506002600082815260200190815260200160002060009054906101000a900460ff16156107a0576040517f08c379a000000000000000000000000000000000000000000000000000000000815260040161079790611fe6565b60405180910390fd5b60008251116107e4576040517f08c379a00000000000000000000000000000000000000000000000000000000081526004016107db90612052565b60405180910390fd5b6040518061014001604052808a81526020018981526020018881526020018781526020018681526020018581526020018481526020013373ffffffffffffffffffffffffffffffffffffffff1681526020016001151581526020018381525060016000838152602001908152602001600020600082015181600001908161086b919061221e565b5060208201518160010155604082015181600201908161088b919061221e565b5060608201518160030190816108a1919061221e565b5060808201518160040190816108b7919061221e565b5060a0820151816005015560c0820151816006015560e08201518160070160006101000a81548173ffffffffffffffffffffffffffffffffffffffff021916908373ffffffffffffffffffffffffffffffffffffffff1602179055506101008201518160070160146101000a81548160ff02191690831515021790555061012082015181600801908161094a919061221e565b5090505060016002600083815260200190815260200160002060006101000a81548160ff021916908315150217905550600360003373ffffffffffffffffffffffffffffffffffffffff1673ffffffffffffffffffffffffffffffffffffffff1681526020019081526020016000208190806001815401808255809150506001900390600052602060002001600090919091909150553373ffffffffffffffffffffffffffffffffffffffff16817f9a10fa57dda7a637a7b8451e2ec74e1984a4e08c4f15c35b46b4b9ee28a9cfaa8b85604051610a299291906122f0565b60405180910390a3505050505050505050565b6001600083815260200190815260200160002060070160149054906101000a900460ff16610a9f576040517f08c379a0000000000000000000000000000000000000000000000000000000008152600401610a9690612373565b60405180910390fd5b6001600083815260200190815260200160002060070160009054906101000a900473ffffffffffffffffffffffffffffffffffffffff1673ffffffffffffffffffffffffffffffffffffffff163373ffffffffffffffffffffffffffffffffffffffff1614610b43576040517f08c379a0000000000000000000000000000000000000000000000000000000008152600401610b3a906123df565b60405180910390fd5b662386f26fc100003414610b8c576040517f08c379a0000000000000000000000000000000000000000000000000000000008152600401610b839061244b565b60405180910390fd5b610b96338361156a565b600360008273ffffffffffffffffffffffffffffffffffffffff1673ffffffffffffffffffffffffffffffffffffffff168152602001908152602001600020829080600181540180825580915050600190039060005260206000200160009091909190915055806001600084815260200190815260200160002060070160006101000a81548173ffffffffffffffffffffffffffffffffffffffff021916908373ffffffffffffffffffffffffffffffffffffffff16021790555060003373ffffffffffffffffffffffffffffffffffffffff16662386f26fc10000604051610c7e9061249c565b60006040518083038185875af1925050503d8060008114610cbb576040519150601f19603f3d011682016040523d82523d6000602084013e610cc0565b606091505b5050905080610d04576040517f08c379a0000000000000000000000000000000000000000000000000000000008152600401610cfb906124fd565b60405180910390fd5b8173ffffffffffffffffffffffffffffffffffffffff163373ffffffffffffffffffffffffffffffffffffffff16847f0b659dccc8eb950324170e8d9598af5ee04ee070883eb28651a96788721fbf8360405160405180910390a4505050565b610d6c61141f565b600073ffffffffffffffffffffffffffffffffffffffff168173ffffffffffffffffffffffffffffffffffffffff1603610dde5760006040517f1e4fbdf7000000000000000000000000000000000000000000000000000000008152600401610dd591906119ea565b60405180910390fd5b610de7816114a6565b50565b60606000606080606060008060006060600160008b815260200190815260200160002060070160149054906101000a900460ff16610e5d576040517f08c379a0000000000000000000000000000000000000000000000000000000008152600401610e5490612373565b60405180910390fd5b6000600160008c815260200190815260200160002060405180610140016040529081600082018054610e8e90611ea8565b80601f0160208091040260200160405190810160405280929190818152602001828054610eba90611ea8565b8015610f075780601f10610edc57610100808354040283529160200191610f07565b820191906000526020600020905b815481529060010190602001808311610eea57829003601f168201915b5050505050815260200160018201548152602001600282018054610f2a90611ea8565b80601f0160208091040260200160405190810160405280929190818152602001828054610f5690611ea8565b8015610fa35780601f10610f7857610100808354040283529160200191610fa3565b820191906000526020600020905b815481529060010190602001808311610f8657829003601f168201915b50505050508152602001600382018054610fbc90611ea8565b80601f0160208091040260200160405190810160405280929190818152602001828054610fe890611ea8565b80156110355780601f1061100a57610100808354040283529160200191611035565b820191906000526020600020905b81548152906001019060200180831161101857829003601f168201915b5050505050815260200160048201805461104e90611ea8565b80601f016020809104026020016040519081016040528092919081815260200182805461107a90611ea8565b80156110c75780601f1061109c576101008083540402835291602001916110c7565b820191906000526020600020905b8154815290600101906020018083116110aa57829003601f168201915b5050505050815260200160058201548152602001600682015481526020016007820160009054906101000a900473ffffffffffffffffffffffffffffffffffffffff1673ffffffffffffffffffffffffffffffffffffffff1673ffffffffffffffffffffffffffffffffffffffff1681526020016007820160149054906101000a900460ff1615151515815260200160088201805461116590611ea8565b80601f016020809104026020016040519081016040528092919081815260200182805461119190611ea8565b80156111de5780601f106111b3576101008083540402835291602001916111de565b820191906000526020600020905b8154815290600101906020018083116111c157829003601f168201915b5050505050815250509050806000015181602001518260400151836060015184608001518560a001518660c001518760e00151886101200151995099509950995099509950995099509950509193959799909294969850565b6001600083815260200190815260200160002060070160149054906101000a900460ff1661129a576040517f08c379a000000000000000000000000000000000000000000000000000000000815260040161129190612373565b60405180910390fd5b6001600083815260200190815260200160002060070160009054906101000a900473ffffffffffffffffffffffffffffffffffffffff1673ffffffffffffffffffffffffffffffffffffffff163373ffffffffffffffffffffffffffffffffffffffff16148061133c575061130d610690565b73ffffffffffffffffffffffffffffffffffffffff163373ffffffffffffffffffffffffffffffffffffffff16145b61137b576040517f08c379a000000000000000000000000000000000000000000000000000000000815260040161137290612569565b60405180910390fd5b60008151116113bf576040517f08c379a00000000000000000000000000000000000000000000000000000000081526004016113b6906125d5565b60405180910390fd5b806001600084815260200190815260200160002060080190816113e2919061221e565b50817f55bfbf9160b0ed8e61b497b7d34a9c6e369413a3472e1507298c9dfdb2f619f08260405161141391906125f5565b60405180910390a25050565b61142761166e565b73ffffffffffffffffffffffffffffffffffffffff16611445610690565b73ffffffffffffffffffffffffffffffffffffffff16146114a45761146861166e565b6040517f118cdaa700000000000000000000000000000000000000000000000000000000815260040161149b91906119ea565b60405180910390fd5b565b60008060009054906101000a900473ffffffffffffffffffffffffffffffffffffffff169050816000806101000a81548173ffffffffffffffffffffffffffffffffffffffff021916908373ffffffffffffffffffffffffffffffffffffffff1602179055508173ffffffffffffffffffffffffffffffffffffffff168173ffffffffffffffffffffffffffffffffffffffff167f8be0079c531659141344cd1fd0a4f28419497f9722a3daafe3b4186f6b6457e060405160405180910390a35050565b6000600360008473ffffffffffffffffffffffffffffffffffffffff1673ffffffffffffffffffffffffffffffffffffffff168152602001908152602001600020905060005b818054905081101561166857828282815481106115d0576115cf612617565b5b90600052602060002001540361165b5781600183805490506115f29190612675565b8154811061160357611602612617565b5b906000526020600020015482828154811061162157611620612617565b5b9060005260206000200181905550818054806116405761163f6126a9565b5b60019003818190600052602060002001600090559055611668565b80806001019150506115b0565b50505050565b600033905090565b6000604051905090565b600080fd5b600080fd5b6000819050919050565b61169d8161168a565b81146116a857600080fd5b50565b6000813590506116ba81611694565b92915050565b6000602082840312156116d6576116d5611680565b5b60006116e4848285016116ab565b91505092915050565b600081519050919050565b600082825260208201905092915050565b60005b8381101561172757808201518184015260208101905061170c565b60008484015250505050565b6000601f19601f8301169050919050565b600061174f826116ed565b61175981856116f8565b9350611769818560208601611709565b61177281611733565b840191505092915050565b6000819050919050565b6117908161177d565b82525050565b600073ffffffffffffffffffffffffffffffffffffffff82169050919050565b60006117c182611796565b9050919050565b6117d1816117b6565b82525050565b60008115159050919050565b6117ec816117d7565b82525050565b600061014082019050818103600083015261180d818d611744565b905061181c602083018c611787565b818103604083015261182e818b611744565b90508181036060830152611842818a611744565b905081810360808301526118568189611744565b905061186560a0830188611787565b61187260c0830187611787565b61187f60e08301866117c8565b61188d6101008301856117e3565b8181036101208301526118a08184611744565b90509b9a5050505050505050505050565b6118ba816117b6565b81146118c557600080fd5b50565b6000813590506118d7816118b1565b92915050565b6000602082840312156118f3576118f2611680565b5b6000611901848285016118c8565b91505092915050565b600081519050919050565b600082825260208201905092915050565b6000819050602082019050919050565b61193f8161168a565b82525050565b60006119518383611936565b60208301905092915050565b6000602082019050919050565b60006119758261190a565b61197f8185611915565b935061198a83611926565b8060005b838110156119bb5781516119a28882611945565b97506119ad8361195d565b92505060018101905061198e565b5085935050505092915050565b600060208201905081810360008301526119e2818461196a565b905092915050565b60006020820190506119ff60008301846117c8565b92915050565b6000602082019050611a1a60008301846117e3565b92915050565b611a298161177d565b8114611a3457600080fd5b50565b600081359050611a4681611a20565b92915050565b60008060408385031215611a6357611a62611680565b5b6000611a71858286016118c8565b9250506020611a8285828601611a37565b9150509250929050565b611a958161168a565b82525050565b6000602082019050611ab06000830184611a8c565b92915050565b600080fd5b600080fd5b7f4e487b7100000000000000000000000000000000000000000000000000000000600052604160045260246000fd5b611af882611733565b810181811067ffffffffffffffff82111715611b1757611b16611ac0565b5b80604052505050565b6000611b2a611676565b9050611b368282611aef565b919050565b600067ffffffffffffffff821115611b5657611b55611ac0565b5b611b5f82611733565b9050602081019050919050565b82818337600083830152505050565b6000611b8e611b8984611b3b565b611b20565b905082815260208101848484011115611baa57611ba9611abb565b5b611bb5848285611b6c565b509392505050565b600082601f830112611bd257611bd1611ab6565b5b8135611be2848260208601611b7b565b91505092915050565b600080600080600080600080610100898b031215611c0c57611c0b611680565b5b600089013567ffffffffffffffff811115611c2a57611c29611685565b5b611c368b828c01611bbd565b9850506020611c478b828c01611a37565b975050604089013567ffffffffffffffff811115611c6857611c67611685565b5b611c748b828c01611bbd565b965050606089013567ffffffffffffffff811115611c9557611c94611685565b5b611ca18b828c01611bbd565b955050608089013567ffffffffffffffff811115611cc257611cc1611685565b5b611cce8b828c01611bbd565b94505060a0611cdf8b828c01611a37565b93505060c0611cf08b828c01611a37565b92505060e089013567ffffffffffffffff811115611d1157611d10611685565b5b611d1d8b828c01611bbd565b9150509295985092959890939650565b60008060408385031215611d4457611d43611680565b5b6000611d52858286016116ab565b9250506020611d63858286016118c8565b9150509250929050565b6000610120820190508181036000830152611d88818c611744565b9050611d97602083018b611787565b8181036040830152611da9818a611744565b90508181036060830152611dbd8189611744565b90508181036080830152611dd18188611744565b9050611de060a0830187611787565b611ded60c0830186611787565b611dfa60e08301856117c8565b818103610100830152611e0d8184611744565b90509a9950505050505050505050565b60008060408385031215611e3457611e33611680565b5b6000611e42858286016116ab565b925050602083013567ffffffffffffffff811115611e6357611e62611685565b5b611e6f85828601611bbd565b9150509250929050565b7f4e487b7100000000000000000000000000000000000000000000000000000000600052602260045260246000fd5b60006002820490506001821680611ec057607f821691505b602082108103611ed357611ed2611e79565b5b50919050565b6000819050919050565b611ef4611eef8261177d565b611ed9565b82525050565b600081905092915050565b6000611f10826116ed565b611f1a8185611efa565b9350611f2a818560208601611709565b80840191505092915050565b6000611f428289611ee3565b602082019150611f528288611f05565b9150611f5e8287611f05565b9150611f6a8286611f05565b9150611f768285611ee3565b602082019150611f868284611ee3565b602082019150819050979650505050505050565b7f4c616e6420616c72656164792072656769737465726564000000000000000000600082015250565b6000611fd06017836116f8565b9150611fdb82611f9a565b602082019050919050565b60006020820190508181036000830152611fff81611fc3565b9050919050565b7f446f63756d656e74206861736820726571756972656400000000000000000000600082015250565b600061203c6016836116f8565b915061204782612006565b602082019050919050565b6000602082019050818103600083015261206b8161202f565b9050919050565b60008190508160005260206000209050919050565b60006020601f8301049050919050565b600082821b905092915050565b6000600883026120d47fffffffffffffffffffffffffffffffffffffffffffffffffffffffffffffffff82612097565b6120de8683612097565b95508019841693508086168417925050509392505050565b6000819050919050565b600061211b6121166121118461177d565b6120f6565b61177d565b9050919050565b6000819050919050565b61213583612100565b61214961214182612122565b8484546120a4565b825550505050565b600090565b61215e612151565b61216981848461212c565b505050565b5b8181101561218d57612182600082612156565b60018101905061216f565b5050565b601f8211156121d2576121a381612072565b6121ac84612087565b810160208510156121bb578190505b6121cf6121c785612087565b83018261216e565b50505b505050565b600082821c905092915050565b60006121f5600019846008026121d7565b1980831691505092915050565b600061220e83836121e4565b9150826002028217905092915050565b612227826116ed565b67ffffffffffffffff8111156122405761223f611ac0565b5b61224a8254611ea8565b612255828285612191565b600060209050601f8311600181146122885760008415612276578287015190505b6122808582612202565b8655506122e8565b601f19841661229686612072565b60005b828110156122be57848901518255600182019150602085019450602081019050612299565b868310156122db57848901516122d7601f8916826121e4565b8355505b6001600288020188555050505b505050505050565b6000604082019050818103600083015261230a8185611744565b9050818103602083015261231e8184611744565b90509392505050565b7f4c616e6420646f6573206e6f7420657869737400000000000000000000000000600082015250565b600061235d6013836116f8565b915061236882612327565b602082019050919050565b6000602082019050818103600083015261238c81612350565b9050919050565b7f4f6e6c79206f776e65722063616e207472616e73666572000000000000000000600082015250565b60006123c96017836116f8565b91506123d482612393565b602082019050919050565b600060208201905081810360008301526123f8816123bc565b9050919050565b7f4d757374207061792065786163746c7920302e3031204d415449430000000000600082015250565b6000612435601b836116f8565b9150612440826123ff565b602082019050919050565b6000602082019050818103600083015261246481612428565b9050919050565b600081905092915050565b50565b600061248660008361246b565b915061249182612476565b600082019050919050565b60006124a782612479565b9150819050919050565b7f4661696c656420746f2073656e64204d41544943000000000000000000000000600082015250565b60006124e76014836116f8565b91506124f2826124b1565b602082019050919050565b60006020820190508181036000830152612516816124da565b9050919050565b7f4e6f7420617574686f72697a6564000000000000000000000000000000000000600082015250565b6000612553600e836116f8565b915061255e8261251d565b602082019050919050565b6000602082019050818103600083015261258281612546565b9050919050565b7f496e76616c696420646f63756d656e7420686173680000000000000000000000600082015250565b60006125bf6015836116f8565b91506125ca82612589565b602082019050919050565b600060208201905081810360008301526125ee816125b2565b9050919050565b6000602082019050818103600083015261260f8184611744565b905092915050565b7f4e487b7100000000000000000000000000000000000000000000000000000000600052603260045260246000fd5b7f4e487b7100000000000000000000000000000000000000000000000000000000600052601160045260246000fd5b60006126808261177d565b915061268b8361177d565b92508282039050818111156126a3576126a2612646565b5b92915050565b7f4e487b7100000000000000000000000000000000000000000000000000000000600052603160045260246000fdfea2646970667358221220d23cf6f92ab68fccf538c0e3e4d60a94740953c49888d87c7ed59666c992ae5364736f6c634300081c0033",
  "linkReferences": {},
  "deployedLinkReferences": {}
}