{
  "_format": "hh-sol-artifact-1",
  "contractName": "LandRegistry",
  "sourceName": "contracts/LandRegistry.sol",
  "abi": [
    {
      "inputs": [],
      "stateMutability": "nonpayable",
      "type": "constructor"
    },
    {
      "inputs": [
        {
          "internalType": "address",
          "name": "owner",
          "type": "address"
        }
      ],
      "name": "OwnableInvalidOwner",
      "type": "error"
    },
    {
      "inputs": [
        {
          "internalType": "address",
          "name": "account",
          "type": "address"
        }
      ],
      "name": "OwnableUnauthorizedAccount",
      "type": "error"
    },
    {
      "anonymous": false,
      "inputs": [
        {
          "indexed": false,
          "internalType": "bytes32",
          "name": "landId",
          "type": "bytes32"
        }
      ],
      "name": "Debug",
      "type": "event"
    },
    {
      "anonymous": false,
      "inputs": [
        {
          "indexed": true,
          "internalType": "bytes32",
          "name": "landId",
          "type": "bytes32"
        },
        {
          "indexed": true,
          "internalType": "address",
          "name": "owner",
          "type": "address"
        },
        {
          "indexed": false,
          "internalType": "string",
          "name": "ownerName",
          "type": "string"
        }
      ],
      "name": "LandRegistered",
      "type": "event"
    },
    {
      "anonymous": false,
      "inputs": [
        {
          "indexed": true,
          "internalType": "address",
          "name": "previousOwner",
          "type": "address"
        },
        {
          "indexed": true,
          "internalType": "address",
          "name": "newOwner",
          "type": "address"
        }
      ],
      "name": "OwnershipTransferred",
      "type": "event"
    },
    {
      "anonymous": false,
      "inputs": [
        {
          "indexed": true,
          "internalType": "bytes32",
          "name": "landId",
          "type": "bytes32"
        },
        {
          "indexed": true,
          "internalType": "address",
          "name": "from",
          "type": "address"
        },
        {
          "indexed": true,
          "internalType": "address",
          "name": "to",
          "type": "address"
        }
      ],
      "name": "OwnershipTransferred",
      "type": "event"
    },
    {
      "inputs": [
        {
          "internalType": "bytes32",
          "name": "_landId",
          "type": "bytes32"
        }
      ],
      "name": "getLand",
      "outputs": [
        {
          "components": [
            {
              "internalType": "string",
              "name": "ownerName",
              "type": "string"
            },
            {
              "internalType": "uint256",
              "name": "landArea",
              "type": "uint256"
            },
            {
              "internalType": "string",
              "name": "district",
              "type": "string"
            },
            {
              "internalType": "string",
              "name": "taluk",
              "type": "string"
            },
            {
              "internalType": "string",
              "name": "village",
              "type": "string"
            },
            {
              "internalType": "uint256",
              "name": "blockNumber",
              "type": "uint256"
            },
            {
              "internalType": "uint256",
              "name": "surveyNumber",
              "type": "uint256"
            },
            {
              "internalType": "address",
              "name": "ownerAddress",
              "type": "address"
            },
            {
              "internalType": "bool",
              "name": "exists",
              "type": "bool"
            }
          ],
          "internalType": "struct LandRegistry.Land",
          "name": "",
          "type": "tuple"
        }
      ],
      "stateMutability": "view",
      "type": "function"
    },
    {
      "inputs": [
        {
          "internalType": "bytes32",
          "name": "",
          "type": "bytes32"
        }
      ],
      "name": "landExists",
      "outputs": [
        {
          "internalType": "bool",
          "name": "",
          "type": "bool"
        }
      ],
      "stateMutability": "view",
      "type": "function"
    },
    {
      "inputs": [
        {
          "internalType": "bytes32",
          "name": "",
          "type": "bytes32"
        }
      ],
      "name": "lands",
      "outputs": [
        {
          "internalType": "string",
          "name": "ownerName",
          "type": "string"
        },
        {
          "internalType": "uint256",
          "name": "landArea",
          "type": "uint256"
        },
        {
          "internalType": "string",
          "name": "district",
          "type": "string"
        },
        {
          "internalType": "string",
          "name": "taluk",
          "type": "string"
        },
        {
          "internalType": "string",
          "name": "village",
          "type": "string"
        },
        {
          "internalType": "uint256",
          "name": "blockNumber",
          "type": "uint256"
        },
        {
          "internalType": "uint256",
          "name": "surveyNumber",
          "type": "uint256"
        },
        {
          "internalType": "address",
          "name": "ownerAddress",
          "type": "address"
        },
        {
          "internalType": "bool",
          "name": "exists",
          "type": "bool"
        }
      ],
      "stateMutability": "view",
      "type": "function"
    },
    {
      "inputs": [],
      "name": "owner",
      "outputs": [
        {
          "internalType": "address",
          "name": "",
          "type": "address"
        }
      ],
      "stateMutability": "view",
      "type": "function"
    },
    {
      "inputs": [
        {
          "internalType": "string",
          "name": "_ownerName",
          "type": "string"
        },
        {
          "internalType": "uint256",
          "name": "_landArea",
          "type": "uint256"
        },
        {
          "internalType": "string",
          "name": "_district",
          "type": "string"
        },
        {
          "internalType": "string",
          "name": "_taluk",
          "type": "string"
        },
        {
          "internalType": "string",
          "name": "_village",
          "type": "string"
        },
        {
          "internalType": "uint256",
          "name": "_blockNumber",
          "type": "uint256"
        },
        {
          "internalType": "uint256",
          "name": "_surveyNumber",
          "type": "uint256"
        }
      ],
      "name": "registerLand",
      "outputs": [],
      "stateMutability": "nonpayable",
      "type": "function"
    },
    {
      "inputs": [],
      "name": "renounceOwnership",
      "outputs": [],
      "stateMutability": "nonpayable",
      "type": "function"
    },
    {
      "inputs": [
        {
          "internalType": "bytes32",
          "name": "_landId",
          "type": "bytes32"
        },
        {
          "internalType": "address",
          "name": "_newOwner",
          "type": "address"
        }
      ],
      "name": "transferOwnership",
      "outputs": [],
      "stateMutability": "payable",
      "type": "function"
    },
    {
      "inputs": [
        {
          "internalType": "address",
          "name": "newOwner",
          "type": "address"
        }
      ],
      "name": "transferOwnership",
      "outputs": [],
      "stateMutability": "nonpayable",
      "type": "function"
    }
  ],
  "bytecode": "0x608060405234801561001057600080fd5b5033600073ffffffffffffffffffffffffffffffffffffffff168173ffffffffffffffffffffffffffffffffffffffff16036100845760006040517f1e4fbdf700000000000000000000000000000000000000000000000000000000815260040161007b919061019e565b60405180910390fd5b6100938161009960201b60201c565b506101b9565b60008060009054906101000a900473ffffffffffffffffffffffffffffffffffffffff169050816000806101000a81548173ffffffffffffffffffffffffffffffffffffffff021916908373ffffffffffffffffffffffffffffffffffffffff1602179055508173ffffffffffffffffffffffffffffffffffffffff168173ffffffffffffffffffffffffffffffffffffffff167f8be0079c531659141344cd1fd0a4f28419497f9722a3daafe3b4186f6b6457e060405160405180910390a35050565b600073ffffffffffffffffffffffffffffffffffffffff82169050919050565b60006101888261015d565b9050919050565b6101988161017d565b82525050565b60006020820190506101b3600083018461018f565b92915050565b611d84806101c86000396000f3fe60806040526004361061007b5760003560e01c8063a89dae821161004e578063a89dae8214610130578063ef5d6bbb1461016d578063f2fde38b14610189578063f987cd9e146101b25761007b565b8063139e38b41461008057806316f72470146100c5578063715018a6146100ee5780638da5cb5b14610105575b600080fd5b34801561008c57600080fd5b506100a760048036038101906100a29190611071565b6101ef565b6040516100bc999897969594939291906111a3565b60405180910390f35b3480156100d157600080fd5b506100ec60048036038101906100e791906113ad565b61048a565b005b3480156100fa57600080fd5b50610103610731565b005b34801561011157600080fd5b5061011a610745565b60405161012791906114bf565b60405180910390f35b34801561013c57600080fd5b5061015760048036038101906101529190611071565b61076e565b60405161016491906114da565b60405180910390f35b61018760048036038101906101829190611521565b61078e565b005b34801561019557600080fd5b506101b060048036038101906101ab9190611561565b610a82565b005b3480156101be57600080fd5b506101d960048036038101906101d49190611071565b610b08565b6040516101e691906116df565b60405180910390f35b600160205280600052604060002060009150905080600001805461021290611730565b80601f016020809104026020016040519081016040528092919081815260200182805461023e90611730565b801561028b5780601f106102605761010080835404028352916020019161028b565b820191906000526020600020905b81548152906001019060200180831161026e57829003601f168201915b5050505050908060010154908060020180546102a690611730565b80601f01602080910402602001604051908101604052809291908181526020018280546102d290611730565b801561031f5780601f106102f45761010080835404028352916020019161031f565b820191906000526020600020905b81548152906001019060200180831161030257829003601f168201915b50505050509080600301805461033490611730565b80601f016020809104026020016040519081016040528092919081815260200182805461036090611730565b80156103ad5780601f10610382576101008083540402835291602001916103ad565b820191906000526020600020905b81548152906001019060200180831161039057829003601f168201915b5050505050908060040180546103c290611730565b80601f01602080910402602001604051908101604052809291908181526020018280546103ee90611730565b801561043b5780601f106104105761010080835404028352916020019161043b565b820191906000526020600020905b81548152906001019060200180831161041e57829003601f168201915b5050505050908060050154908060060154908060070160009054906101000a900473ffffffffffffffffffffffffffffffffffffffff16908060070160149054906101000a900460ff16905089565b610492610e70565b60008686868686866040516020016104af969594939291906117be565b6040516020818303038152906040528051906020012090506002600082815260200190815260200160002060009054906101000a900460ff1615610528576040517f08c379a000000000000000000000000000000000000000000000000000000000815260040161051f9061186e565b60405180910390fd5b6040518061012001604052808981526020018881526020018781526020018681526020018581526020018481526020018381526020013373ffffffffffffffffffffffffffffffffffffffff168152602001600115158152506001600083815260200190815260200160002060008201518160000190816105a99190611a3a565b506020820151816001015560408201518160020190816105c99190611a3a565b5060608201518160030190816105df9190611a3a565b5060808201518160040190816105f59190611a3a565b5060a0820151816005015560c0820151816006015560e08201518160070160006101000a81548173ffffffffffffffffffffffffffffffffffffffff021916908373ffffffffffffffffffffffffffffffffffffffff1602179055506101008201518160070160146101000a81548160ff02191690831515021790555090505060016002600083815260200190815260200160002060006101000a81548160ff0219169083151502179055503373ffffffffffffffffffffffffffffffffffffffff16817fcfa7f32e4faf90b1499a92258951cbc53cd65bd1fbca794dfac0c22ecd04cf898a6040516106e89190611b0c565b60405180910390a37ff6d7d8f638af86edbd3db0363022953a79197e2b970840dd72ca38b9b4ada8928160405161071f9190611b3d565b60405180910390a15050505050505050565b610739610e70565b6107436000610ef7565b565b60008060009054906101000a900473ffffffffffffffffffffffffffffffffffffffff16905090565b60026020528060005260406000206000915054906101000a900460ff1681565b6001600083815260200190815260200160002060070160149054906101000a900460ff166107f1576040517f08c379a00000000000000000000000000000000000000000000000000000000081526004016107e890611ba4565b60405180910390fd5b6001600083815260200190815260200160002060070160009054906101000a900473ffffffffffffffffffffffffffffffffffffffff1673ffffffffffffffffffffffffffffffffffffffff163373ffffffffffffffffffffffffffffffffffffffff1614610895576040517f08c379a000000000000000000000000000000000000000000000000000000000815260040161088c90611c10565b60405180910390fd5b662386f26fc1000034146108de576040517f08c379a00000000000000000000000000000000000000000000000000000000081526004016108d590611c7c565b60405180910390fd5b60006001600084815260200190815260200160002060070160009054906101000a900473ffffffffffffffffffffffffffffffffffffffff169050816001600085815260200190815260200160002060070160006101000a81548173ffffffffffffffffffffffffffffffffffffffff021916908373ffffffffffffffffffffffffffffffffffffffff16021790555060008173ffffffffffffffffffffffffffffffffffffffff16662386f26fc1000060405161099b90611ccd565b60006040518083038185875af1925050503d80600081146109d8576040519150601f19603f3d011682016040523d82523d6000602084013e6109dd565b606091505b5050905080610a21576040517f08c379a0000000000000000000000000000000000000000000000000000000008152600401610a1890611d2e565b60405180910390fd5b8273ffffffffffffffffffffffffffffffffffffffff168273ffffffffffffffffffffffffffffffffffffffff16857f0b659dccc8eb950324170e8d9598af5ee04ee070883eb28651a96788721fbf8360405160405180910390a450505050565b610a8a610e70565b600073ffffffffffffffffffffffffffffffffffffffff168173ffffffffffffffffffffffffffffffffffffffff1603610afc5760006040517f1e4fbdf7000000000000000000000000000000000000000000000000000000008152600401610af391906114bf565b60405180910390fd5b610b0581610ef7565b50565b610b10610fc3565b6001600083815260200190815260200160002060070160149054906101000a900460ff16610b73576040517f08c379a0000000000000000000000000000000000000000000000000000000008152600401610b6a90611ba4565b60405180910390fd5b6001600083815260200190815260200160002060405180610120016040529081600082018054610ba290611730565b80601f0160208091040260200160405190810160405280929190818152602001828054610bce90611730565b8015610c1b5780601f10610bf057610100808354040283529160200191610c1b565b820191906000526020600020905b815481529060010190602001808311610bfe57829003601f168201915b5050505050815260200160018201548152602001600282018054610c3e90611730565b80601f0160208091040260200160405190810160405280929190818152602001828054610c6a90611730565b8015610cb75780601f10610c8c57610100808354040283529160200191610cb7565b820191906000526020600020905b815481529060010190602001808311610c9a57829003601f168201915b50505050508152602001600382018054610cd090611730565b80601f0160208091040260200160405190810160405280929190818152602001828054610cfc90611730565b8015610d495780601f10610d1e57610100808354040283529160200191610d49565b820191906000526020600020905b815481529060010190602001808311610d2c57829003601f168201915b50505050508152602001600482018054610d6290611730565b80601f0160208091040260200160405190810160405280929190818152602001828054610d8e90611730565b8015610ddb5780601f10610db057610100808354040283529160200191610ddb565b820191906000526020600020905b815481529060010190602001808311610dbe57829003601f168201915b5050505050815260200160058201548152602001600682015481526020016007820160009054906101000a900473ffffffffffffffffffffffffffffffffffffffff1673ffffffffffffffffffffffffffffffffffffffff1673ffffffffffffffffffffffffffffffffffffffff1681526020016007820160149054906101000a900460ff1615151515815250509050919050565b610e78610fbb565b73ffffffffffffffffffffffffffffffffffffffff16610e96610745565b73ffffffffffffffffffffffffffffffffffffffff1614610ef557610eb9610fbb565b6040517f118cdaa7000000000000000000000000000000000000000000000000000000008152600401610eec91906114bf565b60405180910390fd5b565b60008060009054906101000a900473ffffffffffffffffffffffffffffffffffffffff169050816000806101000a81548173ffffffffffffffffffffffffffffffffffffffff021916908373ffffffffffffffffffffffffffffffffffffffff1602179055508173ffffffffffffffffffffffffffffffffffffffff168173ffffffffffffffffffffffffffffffffffffffff167f8be0079c531659141344cd1fd0a4f28419497f9722a3daafe3b4186f6b6457e060405160405180910390a35050565b600033905090565b60405180610120016040528060608152602001600081526020016060815260200160608152602001606081526020016000815260200160008152602001600073ffffffffffffffffffffffffffffffffffffffff1681526020016000151581525090565b6000604051905090565b600080fd5b600080fd5b6000819050919050565b61104e8161103b565b811461105957600080fd5b50565b60008135905061106b81611045565b92915050565b60006020828403121561108757611086611031565b5b60006110958482850161105c565b91505092915050565b600081519050919050565b600082825260208201905092915050565b60005b838110156110d85780820151818401526020810190506110bd565b60008484015250505050565b6000601f19601f8301169050919050565b60006111008261109e565b61110a81856110a9565b935061111a8185602086016110ba565b611123816110e4565b840191505092915050565b6000819050919050565b6111418161112e565b82525050565b600073ffffffffffffffffffffffffffffffffffffffff82169050919050565b600061117282611147565b9050919050565b61118281611167565b82525050565b60008115159050919050565b61119d81611188565b82525050565b60006101208201905081810360008301526111be818c6110f5565b90506111cd602083018b611138565b81810360408301526111df818a6110f5565b905081810360608301526111f381896110f5565b9050818103608083015261120781886110f5565b905061121660a0830187611138565b61122360c0830186611138565b61123060e0830185611179565b61123e610100830184611194565b9a9950505050505050505050565b600080fd5b600080fd5b7f4e487b7100000000000000000000000000000000000000000000000000000000600052604160045260246000fd5b61128e826110e4565b810181811067ffffffffffffffff821117156112ad576112ac611256565b5b80604052505050565b60006112c0611027565b90506112cc8282611285565b919050565b600067ffffffffffffffff8211156112ec576112eb611256565b5b6112f5826110e4565b9050602081019050919050565b82818337600083830152505050565b600061132461131f846112d1565b6112b6565b9050828152602081018484840111156113405761133f611251565b5b61134b848285611302565b509392505050565b600082601f8301126113685761136761124c565b5b8135611378848260208601611311565b91505092915050565b61138a8161112e565b811461139557600080fd5b50565b6000813590506113a781611381565b92915050565b600080600080600080600060e0888a0312156113cc576113cb611031565b5b600088013567ffffffffffffffff8111156113ea576113e9611036565b5b6113f68a828b01611353565b97505060206114078a828b01611398565b965050604088013567ffffffffffffffff81111561142857611427611036565b5b6114348a828b01611353565b955050606088013567ffffffffffffffff81111561145557611454611036565b5b6114618a828b01611353565b945050608088013567ffffffffffffffff81111561148257611481611036565b5b61148e8a828b01611353565b93505060a061149f8a828b01611398565b92505060c06114b08a828b01611398565b91505092959891949750929550565b60006020820190506114d46000830184611179565b92915050565b60006020820190506114ef6000830184611194565b92915050565b6114fe81611167565b811461150957600080fd5b50565b60008135905061151b816114f5565b92915050565b6000806040838503121561153857611537611031565b5b60006115468582860161105c565b92505060206115578582860161150c565b9150509250929050565b60006020828403121561157757611576611031565b5b60006115858482850161150c565b91505092915050565b600082825260208201905092915050565b60006115aa8261109e565b6115b4818561158e565b93506115c48185602086016110ba565b6115cd816110e4565b840191505092915050565b6115e18161112e565b82525050565b6115f081611167565b82525050565b6115ff81611188565b82525050565b6000610120830160008301518482036000860152611623828261159f565b915050602083015161163860208601826115d8565b5060408301518482036040860152611650828261159f565b9150506060830151848203606086015261166a828261159f565b91505060808301518482036080860152611684828261159f565b91505060a083015161169960a08601826115d8565b5060c08301516116ac60c08601826115d8565b5060e08301516116bf60e08601826115e7565b506101008301516116d46101008601826115f6565b508091505092915050565b600060208201905081810360008301526116f98184611605565b905092915050565b7f4e487b7100000000000000000000000000000000000000000000000000000000600052602260045260246000fd5b6000600282049050600182168061174857607f821691505b60208210810361175b5761175a611701565b5b50919050565b6000819050919050565b61177c6117778261112e565b611761565b82525050565b600081905092915050565b60006117988261109e565b6117a28185611782565b93506117b28185602086016110ba565b80840191505092915050565b60006117ca828961176b565b6020820191506117da828861178d565b91506117e6828761178d565b91506117f2828661178d565b91506117fe828561176b565b60208201915061180e828461176b565b602082019150819050979650505050505050565b7f4c616e6420616c72656164792072656769737465726564000000000000000000600082015250565b60006118586017836110a9565b915061186382611822565b602082019050919050565b600060208201905081810360008301526118878161184b565b9050919050565b60008190508160005260206000209050919050565b60006020601f8301049050919050565b600082821b905092915050565b6000600883026118f07fffffffffffffffffffffffffffffffffffffffffffffffffffffffffffffffff826118b3565b6118fa86836118b3565b95508019841693508086168417925050509392505050565b6000819050919050565b600061193761193261192d8461112e565b611912565b61112e565b9050919050565b6000819050919050565b6119518361191c565b61196561195d8261193e565b8484546118c0565b825550505050565b600090565b61197a61196d565b611985818484611948565b505050565b5b818110156119a95761199e600082611972565b60018101905061198b565b5050565b601f8211156119ee576119bf8161188e565b6119c8846118a3565b810160208510156119d7578190505b6119eb6119e3856118a3565b83018261198a565b50505b505050565b600082821c905092915050565b6000611a11600019846008026119f3565b1980831691505092915050565b6000611a2a8383611a00565b9150826002028217905092915050565b611a438261109e565b67ffffffffffffffff811115611a5c57611a5b611256565b5b611a668254611730565b611a718282856119ad565b600060209050601f831160018114611aa45760008415611a92578287015190505b611a9c8582611a1e565b865550611b04565b601f198416611ab28661188e565b60005b82811015611ada57848901518255600182019150602085019450602081019050611ab5565b86831015611af75784890151611af3601f891682611a00565b8355505b6001600288020188555050505b505050505050565b60006020820190508181036000830152611b2681846110f5565b905092915050565b611b378161103b565b82525050565b6000602082019050611b526000830184611b2e565b92915050565b7f4c616e6420646f6573206e6f7420657869737400000000000000000000000000600082015250565b6000611b8e6013836110a9565b9150611b9982611b58565b602082019050919050565b60006020820190508181036000830152611bbd81611b81565b9050919050565b7f4f6e6c7920746865206f776e65722063616e207472616e736665720000000000600082015250565b6000611bfa601b836110a9565b9150611c0582611bc4565b602082019050919050565b60006020820190508181036000830152611c2981611bed565b9050919050565b7f4d757374207061792065786163746c7920302e3031204d415449430000000000600082015250565b6000611c66601b836110a9565b9150611c7182611c30565b602082019050919050565b60006020820190508181036000830152611c9581611c59565b9050919050565b600081905092915050565b50565b6000611cb7600083611c9c565b9150611cc282611ca7565b600082019050919050565b6000611cd882611caa565b9150819050919050565b7f4661696c656420746f2073656e64204d41544943000000000000000000000000600082015250565b6000611d186014836110a9565b9150611d2382611ce2565b602082019050919050565b60006020820190508181036000830152611d4781611d0b565b905091905056fea26469706673582212202d1759103dcd1ce16aaa9d73811c725b3da3370bb9b519f8ff8cfa7cae7f673764736f6c634300081c0033",
  "linkReferences": {},
  "deployedLinkReferences": {}
}