{
  "_format": "hh-sol-artifact-1",
  "contractName": "LandRegistry",
  "sourceName": "contracts/LandRegistry.sol",
  "abi": [
    {
      "inputs": [],
      "stateMutability": "nonpayable",
      "type": "constructor"
    },
    {
      "inputs": [
        {
          "internalType": "address",
          "name": "owner",
          "type": "address"
        }
      ],
      "name": "OwnableInvalidOwner",
      "type": "error"
    },
    {
      "inputs": [
        {
          "internalType": "address",
          "name": "account",
          "type": "address"
        }
      ],
      "name": "OwnableUnauthorizedAccount",
      "type": "error"
    },
    {
      "anonymous": false,
      "inputs": [
        {
          "indexed": true,
          "internalType": "bytes32",
          "name": "landId",
          "type": "bytes32"
        },
        {
          "indexed": true,
          "internalType": "address",
          "name": "owner",
          "type": "address"
        },
        {
          "indexed": false,
          "internalType": "string",
          "name": "ownerName",
          "type": "string"
        },
        {
          "indexed": false,
          "internalType": "string",
          "name": "documentHash",
          "type": "string"
        },
        {
          "indexed": false,
          "internalType": "uint256",
          "name": "price",
          "type": "uint256"
        }
      ],
      "name": "LandRegistered",
      "type": "event"
    },
    {
      "anonymous": false,
      "inputs": [
        {
          "indexed": true,
          "internalType": "bytes32",
          "name": "landId",
          "type": "bytes32"
        }
      ],
      "name": "LandVerified",
      "type": "event"
    },
    {
      "anonymous": false,
      "inputs": [
        {
          "indexed": true,
          "internalType": "address",
          "name": "previousOwner",
          "type": "address"
        },
        {
          "indexed": true,
          "internalType": "address",
          "name": "newOwner",
          "type": "address"
        }
      ],
      "name": "OwnershipTransferred",
      "type": "event"
    },
    {
      "anonymous": false,
      "inputs": [
        {
          "indexed": true,
          "internalType": "bytes32",
          "name": "landId",
          "type": "bytes32"
        },
        {
          "indexed": true,
          "internalType": "address",
          "name": "from",
          "type": "address"
        },
        {
          "indexed": true,
          "internalType": "address",
          "name": "to",
          "type": "address"
        },
        {
          "indexed": false,
          "internalType": "uint256",
          "name": "price",
          "type": "uint256"
        }
      ],
      "name": "OwnershipTransferred",
      "type": "event"
    },
    {
      "inputs": [
        {
          "internalType": "bytes32",
          "name": "_landId",
          "type": "bytes32"
        }
      ],
      "name": "getLand",
      "outputs": [
        {
          "components": [
            {
              "internalType": "string",
              "name": "ownerName",
              "type": "string"
            },
            {
              "internalType": "uint256",
              "name": "landArea",
              "type": "uint256"
            },
            {
              "internalType": "string",
              "name": "district",
              "type": "string"
            },
            {
              "internalType": "string",
              "name": "taluk",
              "type": "string"
            },
            {
              "internalType": "string",
              "name": "village",
              "type": "string"
            },
            {
              "internalType": "uint256",
              "name": "blockNumber",
              "type": "uint256"
            },
            {
              "internalType": "uint256",
              "name": "surveyNumber",
              "type": "uint256"
            },
            {
              "internalType": "address",
              "name": "ownerAddress",
              "type": "address"
            },
            {
              "internalType": "bool",
              "name": "exists",
              "type": "bool"
            },
            {
              "internalType": "string",
              "name": "documentHash",
              "type": "string"
            },
            {
              "internalType": "bool",
              "name": "verified",
              "type": "bool"
            },
            {
              "internalType": "uint256",
              "name": "price",
              "type": "uint256"
            }
          ],
          "internalType": "struct LandRegistry.Land",
          "name": "",
          "type": "tuple"
        }
      ],
      "stateMutability": "view",
      "type": "function"
    },
    {
      "inputs": [
        {
          "internalType": "address",
          "name": "_owner",
          "type": "address"
        }
      ],
      "name": "getLandsByOwner",
      "outputs": [
        {
          "internalType": "bytes32[]",
          "name": "",
          "type": "bytes32[]"
        }
      ],
      "stateMutability": "view",
      "type": "function"
    },
    {
      "inputs": [
        {
          "internalType": "bytes32",
          "name": "",
          "type": "bytes32"
        }
      ],
      "name": "landExists",
      "outputs": [
        {
          "internalType": "bool",
          "name": "",
          "type": "bool"
        }
      ],
      "stateMutability": "view",
      "type": "function"
    },
    {
      "inputs": [
        {
          "internalType": "bytes32",
          "name": "",
          "type": "bytes32"
        }
      ],
      "name": "lands",
      "outputs": [
        {
          "internalType": "string",
          "name": "ownerName",
          "type": "string"
        },
        {
          "internalType": "uint256",
          "name": "landArea",
          "type": "uint256"
        },
        {
          "internalType": "string",
          "name": "district",
          "type": "string"
        },
        {
          "internalType": "string",
          "name": "taluk",
          "type": "string"
        },
        {
          "internalType": "string",
          "name": "village",
          "type": "string"
        },
        {
          "internalType": "uint256",
          "name": "blockNumber",
          "type": "uint256"
        },
        {
          "internalType": "uint256",
          "name": "surveyNumber",
          "type": "uint256"
        },
        {
          "internalType": "address",
          "name": "ownerAddress",
          "type": "address"
        },
        {
          "internalType": "bool",
          "name": "exists",
          "type": "bool"
        },
        {
          "internalType": "string",
          "name": "documentHash",
          "type": "string"
        },
        {
          "internalType": "bool",
          "name": "verified",
          "type": "bool"
        },
        {
          "internalType": "uint256",
          "name": "price",
          "type": "uint256"
        }
      ],
      "stateMutability": "view",
      "type": "function"
    },
    {
      "inputs": [],
      "name": "owner",
      "outputs": [
        {
          "internalType": "address",
          "name": "",
          "type": "address"
        }
      ],
      "stateMutability": "view",
      "type": "function"
    },
    {
      "inputs": [
        {
          "internalType": "address",
          "name": "",
          "type": "address"
        },
        {
          "internalType": "uint256",
          "name": "",
          "type": "uint256"
        }
      ],
      "name": "ownerLands",
      "outputs": [
        {
          "internalType": "bytes32",
          "name": "",
          "type": "bytes32"
        }
      ],
      "stateMutability": "view",
      "type": "function"
    },
    {
      "inputs": [],
      "name": "renounceOwnership",
      "outputs": [],
      "stateMutability": "nonpayable",
      "type": "function"
    },
    {
      "inputs": [
        {
          "internalType": "bytes32",
          "name": "_landId",
          "type": "bytes32"
        },
        {
          "internalType": "string",
          "name": "_ownerName",
          "type": "string"
        }
      ],
      "name": "transferLandOwnership",
      "outputs": [],
      "stateMutability": "payable",
      "type": "function"
    },
    {
      "inputs": [
        {
          "internalType": "address",
          "name": "newOwner",
          "type": "address"
        }
      ],
      "name": "transferOwnership",
      "outputs": [],
      "stateMutability": "nonpayable",
      "type": "function"
    },
    {
      "inputs": [
        {
          "internalType": "bytes32",
          "name": "_landId",
          "type": "bytes32"
        },
        {
          "internalType": "string",
          "name": "_ownerName",
          "type": "string"
        },
        {
          "internalType": "uint256",
          "name": "_landArea",
          "type": "uint256"
        },
        {
          "internalType": "string",
          "name": "_district",
          "type": "string"
        },
        {
          "internalType": "string",
          "name": "_taluk",
          "type": "string"
        },
        {
          "internalType": "string",
          "name": "_village",
          "type": "string"
        },
        {
          "internalType": "uint256",
          "name": "_blockNumber",
          "type": "uint256"
        },
        {
          "internalType": "uint256",
          "name": "_surveyNumber",
          "type": "uint256"
        },
        {
          "internalType": "address",
          "name": "_ownerAddress",
          "type": "address"
        },
        {
          "internalType": "string",
          "name": "_documentHash",
          "type": "string"
        },
        {
          "internalType": "uint256",
          "name": "_price",
          "type": "uint256"
        }
      ],
      "name": "verifyAndRegisterLand",
      "outputs": [],
      "stateMutability": "nonpayable",
      "type": "function"
    }
  ],
  "bytecode": "0x608060405234801561001057600080fd5b5033600073ffffffffffffffffffffffffffffffffffffffff168173ffffffffffffffffffffffffffffffffffffffff16036100845760006040517f1e4fbdf700000000000000000000000000000000000000000000000000000000815260040161007b919061019e565b60405180910390fd5b6100938161009960201b60201c565b506101b9565b60008060009054906101000a900473ffffffffffffffffffffffffffffffffffffffff169050816000806101000a81548173ffffffffffffffffffffffffffffffffffffffff021916908373ffffffffffffffffffffffffffffffffffffffff1602179055508173ffffffffffffffffffffffffffffffffffffffff168173ffffffffffffffffffffffffffffffffffffffff167f8be0079c531659141344cd1fd0a4f28419497f9722a3daafe3b4186f6b6457e060405160405180910390a35050565b600073ffffffffffffffffffffffffffffffffffffffff82169050919050565b60006101888261015d565b9050919050565b6101988161017d565b82525050565b60006020820190506101b3600083018461018f565b92915050565b6124c5806101c86000396000f3fe6080604052600436106100915760003560e01c8063a89dae8211610059578063a89dae8214610179578063d0dea6e2146101b6578063e018c18d146101f3578063f2fde38b1461021c578063f987cd9e1461024557610091565b8063139e38b414610096578063455b9d23146100de578063715018a61461011b57806384bec660146101325780638da5cb5b1461014e575b600080fd5b3480156100a257600080fd5b506100bd60048036038101906100b891906114cd565b610282565b6040516100d59c9b9a999897969594939291906115ff565b60405180910390f35b3480156100ea57600080fd5b5061010560048036038101906101009190611708565b6105c4565b60405161011291906117f3565b60405180910390f35b34801561012757600080fd5b5061013061065b565b005b61014c6004803603810190610147919061194a565b61066f565b005b34801561015a57600080fd5b5061016361094a565b60405161017091906119a6565b60405180910390f35b34801561018557600080fd5b506101a0600480360381019061019b91906114cd565b610973565b6040516101ad91906119c1565b60405180910390f35b3480156101c257600080fd5b506101dd60048036038101906101d89190611a08565b610993565b6040516101ea9190611a57565b60405180910390f35b3480156101ff57600080fd5b5061021a60048036038101906102159190611a72565b6109c4565b005b34801561022857600080fd5b50610243600480360381019061023e9190611708565b610e10565b005b34801561025157600080fd5b5061026c600480360381019061026791906114cd565b610e96565b6040516102799190611d89565b60405180910390f35b60016020528060005260406000206000915090508060000180546102a590611dda565b80601f01602080910402602001604051908101604052809291908181526020018280546102d190611dda565b801561031e5780601f106102f35761010080835404028352916020019161031e565b820191906000526020600020905b81548152906001019060200180831161030157829003601f168201915b50505050509080600101549080600201805461033990611dda565b80601f016020809104026020016040519081016040528092919081815260200182805461036590611dda565b80156103b25780601f10610387576101008083540402835291602001916103b2565b820191906000526020600020905b81548152906001019060200180831161039557829003601f168201915b5050505050908060030180546103c790611dda565b80601f01602080910402602001604051908101604052809291908181526020018280546103f390611dda565b80156104405780601f1061041557610100808354040283529160200191610440565b820191906000526020600020905b81548152906001019060200180831161042357829003601f168201915b50505050509080600401805461045590611dda565b80601f016020809104026020016040519081016040528092919081815260200182805461048190611dda565b80156104ce5780601f106104a3576101008083540402835291602001916104ce565b820191906000526020600020905b8154815290600101906020018083116104b157829003601f168201915b5050505050908060050154908060060154908060070160009054906101000a900473ffffffffffffffffffffffffffffffffffffffff16908060070160149054906101000a900460ff169080600801805461052890611dda565b80601f016020809104026020016040519081016040528092919081815260200182805461055490611dda565b80156105a15780601f10610576576101008083540402835291602001916105a1565b820191906000526020600020905b81548152906001019060200180831161058457829003601f168201915b5050505050908060090160009054906101000a900460ff169080600a015490508c565b6060600360008373ffffffffffffffffffffffffffffffffffffffff1673ffffffffffffffffffffffffffffffffffffffff16815260200190815260200160002080548060200260200160405190810160405280929190818152602001828054801561064f57602002820191906000526020600020905b81548152602001906001019080831161063b575b50505050509050919050565b6106636112b5565b61066d600061133c565b565b60006001600084815260200190815260200160002090508060070160149054906101000a900460ff166106d7576040517f08c379a00000000000000000000000000000000000000000000000000000000081526004016106ce90611e57565b60405180910390fd5b80600a0154341461071d576040517f08c379a000000000000000000000000000000000000000000000000000000000815260040161071490611ec3565b60405180910390fd5b3373ffffffffffffffffffffffffffffffffffffffff168160070160009054906101000a900473ffffffffffffffffffffffffffffffffffffffff1673ffffffffffffffffffffffffffffffffffffffff16036107af576040517f08c379a00000000000000000000000000000000000000000000000000000000081526004016107a690611f2f565b60405180910390fd5b60008160070160009054906101000a900473ffffffffffffffffffffffffffffffffffffffff169050338260070160006101000a81548173ffffffffffffffffffffffffffffffffffffffff021916908373ffffffffffffffffffffffffffffffffffffffff1602179055508282600001908161082c91906120fb565b5060008173ffffffffffffffffffffffffffffffffffffffff1634604051610853906121fe565b60006040518083038185875af1925050503d8060008114610890576040519150601f19603f3d011682016040523d82523d6000602084013e610895565b606091505b50509050806108d9576040517f08c379a00000000000000000000000000000000000000000000000000000000081526004016108d09061225f565b60405180910390fd5b3373ffffffffffffffffffffffffffffffffffffffff168273ffffffffffffffffffffffffffffffffffffffff16867fa52922d09c6a1791e36eb59a9e49d10485a999fa47c3930dde6f6bf4329579d186600a015460405161093b919061227f565b60405180910390a45050505050565b60008060009054906101000a900473ffffffffffffffffffffffffffffffffffffffff16905090565b60026020528060005260406000206000915054906101000a900460ff1681565b600360205281600052604060002081815481106109af57600080fd5b90600052602060002001600091509150505481565b6109cc61094a565b73ffffffffffffffffffffffffffffffffffffffff163373ffffffffffffffffffffffffffffffffffffffff1614610a39576040517f08c379a0000000000000000000000000000000000000000000000000000000008152600401610a30906122e6565b60405180910390fd5b600260008c815260200190815260200160002060009054906101000a900460ff1615610a9a576040517f08c379a0000000000000000000000000000000000000000000000000000000008152600401610a9190612352565b60405180910390fd5b600073ffffffffffffffffffffffffffffffffffffffff168373ffffffffffffffffffffffffffffffffffffffff1603610b09576040517f08c379a0000000000000000000000000000000000000000000000000000000008152600401610b00906123be565b60405180910390fd5b60008111610b4c576040517f08c379a0000000000000000000000000000000000000000000000000000000008152600401610b439061242a565b60405180910390fd5b6040518061018001604052808b81526020018a81526020018981526020018881526020018781526020018681526020018581526020018473ffffffffffffffffffffffffffffffffffffffff16815260200160011515815260200183815260200160011515815260200182815250600160008d81526020019081526020016000206000820151816000019081610be291906120fb565b50602082015181600101556040820151816002019081610c0291906120fb565b506060820151816003019081610c1891906120fb565b506080820151816004019081610c2e91906120fb565b5060a0820151816005015560c0820151816006015560e08201518160070160006101000a81548173ffffffffffffffffffffffffffffffffffffffff021916908373ffffffffffffffffffffffffffffffffffffffff1602179055506101008201518160070160146101000a81548160ff021916908315150217905550610120820151816008019081610cc191906120fb565b506101408201518160090160006101000a81548160ff02191690831515021790555061016082015181600a01559050506001600260008d815260200190815260200160002060006101000a81548160ff021916908315150217905550600360008473ffffffffffffffffffffffffffffffffffffffff1673ffffffffffffffffffffffffffffffffffffffff1681526020019081526020016000208b90806001815401808255809150506001900390600052602060002001600090919091909150558273ffffffffffffffffffffffffffffffffffffffff168b7f73ac8800c0e8877f635b44effd08b52ededcc039be00bf4a2205027d6147c1008c8585604051610dce9392919061244a565b60405180910390a38a7f922098e7fba048de66ea8c2903c644d07641a88c4f19f8cedc45cd22a6f39d2260405160405180910390a25050505050505050505050565b610e186112b5565b600073ffffffffffffffffffffffffffffffffffffffff168173ffffffffffffffffffffffffffffffffffffffff1603610e8a5760006040517f1e4fbdf7000000000000000000000000000000000000000000000000000000008152600401610e8191906119a6565b60405180910390fd5b610e938161133c565b50565b610e9e611408565b6001600083815260200190815260200160002060070160149054906101000a900460ff16610f01576040517f08c379a0000000000000000000000000000000000000000000000000000000008152600401610ef890611e57565b60405180910390fd5b6001600083815260200190815260200160002060405180610180016040529081600082018054610f3090611dda565b80601f0160208091040260200160405190810160405280929190818152602001828054610f5c90611dda565b8015610fa95780601f10610f7e57610100808354040283529160200191610fa9565b820191906000526020600020905b815481529060010190602001808311610f8c57829003601f168201915b5050505050815260200160018201548152602001600282018054610fcc90611dda565b80601f0160208091040260200160405190810160405280929190818152602001828054610ff890611dda565b80156110455780601f1061101a57610100808354040283529160200191611045565b820191906000526020600020905b81548152906001019060200180831161102857829003601f168201915b5050505050815260200160038201805461105e90611dda565b80601f016020809104026020016040519081016040528092919081815260200182805461108a90611dda565b80156110d75780601f106110ac576101008083540402835291602001916110d7565b820191906000526020600020905b8154815290600101906020018083116110ba57829003601f168201915b505050505081526020016004820180546110f090611dda565b80601f016020809104026020016040519081016040528092919081815260200182805461111c90611dda565b80156111695780601f1061113e57610100808354040283529160200191611169565b820191906000526020600020905b81548152906001019060200180831161114c57829003601f168201915b5050505050815260200160058201548152602001600682015481526020016007820160009054906101000a900473ffffffffffffffffffffffffffffffffffffffff1673ffffffffffffffffffffffffffffffffffffffff1673ffffffffffffffffffffffffffffffffffffffff1681526020016007820160149054906101000a900460ff1615151515815260200160088201805461120790611dda565b80601f016020809104026020016040519081016040528092919081815260200182805461123390611dda565b80156112805780601f1061125557610100808354040283529160200191611280565b820191906000526020600020905b81548152906001019060200180831161126357829003601f168201915b505050505081526020016009820160009054906101000a900460ff16151515158152602001600a820154815250509050919050565b6112bd611400565b73ffffffffffffffffffffffffffffffffffffffff166112db61094a565b73ffffffffffffffffffffffffffffffffffffffff161461133a576112fe611400565b6040517f118cdaa700000000000000000000000000000000000000000000000000000000815260040161133191906119a6565b60405180910390fd5b565b60008060009054906101000a900473ffffffffffffffffffffffffffffffffffffffff169050816000806101000a81548173ffffffffffffffffffffffffffffffffffffffff021916908373ffffffffffffffffffffffffffffffffffffffff1602179055508173ffffffffffffffffffffffffffffffffffffffff168173ffffffffffffffffffffffffffffffffffffffff167f8be0079c531659141344cd1fd0a4f28419497f9722a3daafe3b4186f6b6457e060405160405180910390a35050565b600033905090565b60405180610180016040528060608152602001600081526020016060815260200160608152602001606081526020016000815260200160008152602001600073ffffffffffffffffffffffffffffffffffffffff16815260200160001515815260200160608152602001600015158152602001600081525090565b6000604051905090565b600080fd5b600080fd5b6000819050919050565b6114aa81611497565b81146114b557600080fd5b50565b6000813590506114c7816114a1565b92915050565b6000602082840312156114e3576114e261148d565b5b60006114f1848285016114b8565b91505092915050565b600081519050919050565b600082825260208201905092915050565b60005b83811015611534578082015181840152602081019050611519565b60008484015250505050565b6000601f19601f8301169050919050565b600061155c826114fa565b6115668185611505565b9350611576818560208601611516565b61157f81611540565b840191505092915050565b6000819050919050565b61159d8161158a565b82525050565b600073ffffffffffffffffffffffffffffffffffffffff82169050919050565b60006115ce826115a3565b9050919050565b6115de816115c3565b82525050565b60008115159050919050565b6115f9816115e4565b82525050565b600061018082019050818103600083015261161a818f611551565b9050611629602083018e611594565b818103604083015261163b818d611551565b9050818103606083015261164f818c611551565b90508181036080830152611663818b611551565b905061167260a083018a611594565b61167f60c0830189611594565b61168c60e08301886115d5565b61169a6101008301876115f0565b8181036101208301526116ad8186611551565b90506116bd6101408301856115f0565b6116cb610160830184611594565b9d9c50505050505050505050505050565b6116e5816115c3565b81146116f057600080fd5b50565b600081359050611702816116dc565b92915050565b60006020828403121561171e5761171d61148d565b5b600061172c848285016116f3565b91505092915050565b600081519050919050565b600082825260208201905092915050565b6000819050602082019050919050565b61176a81611497565b82525050565b600061177c8383611761565b60208301905092915050565b6000602082019050919050565b60006117a082611735565b6117aa8185611740565b93506117b583611751565b8060005b838110156117e65781516117cd8882611770565b97506117d883611788565b9250506001810190506117b9565b5085935050505092915050565b6000602082019050818103600083015261180d8184611795565b905092915050565b600080fd5b600080fd5b7f4e487b7100000000000000000000000000000000000000000000000000000000600052604160045260246000fd5b61185782611540565b810181811067ffffffffffffffff821117156118765761187561181f565b5b80604052505050565b6000611889611483565b9050611895828261184e565b919050565b600067ffffffffffffffff8211156118b5576118b461181f565b5b6118be82611540565b9050602081019050919050565b82818337600083830152505050565b60006118ed6118e88461189a565b61187f565b9050828152602081018484840111156119095761190861181a565b5b6119148482856118cb565b509392505050565b600082601f83011261193157611930611815565b5b81356119418482602086016118da565b91505092915050565b600080604083850312156119615761196061148d565b5b600061196f858286016114b8565b925050602083013567ffffffffffffffff8111156119905761198f611492565b5b61199c8582860161191c565b9150509250929050565b60006020820190506119bb60008301846115d5565b92915050565b60006020820190506119d660008301846115f0565b92915050565b6119e58161158a565b81146119f057600080fd5b50565b600081359050611a02816119dc565b92915050565b60008060408385031215611a1f57611a1e61148d565b5b6000611a2d858286016116f3565b9250506020611a3e858286016119f3565b9150509250929050565b611a5181611497565b82525050565b6000602082019050611a6c6000830184611a48565b92915050565b60008060008060008060008060008060006101608c8e031215611a9857611a9761148d565b5b6000611aa68e828f016114b8565b9b505060208c013567ffffffffffffffff811115611ac757611ac6611492565b5b611ad38e828f0161191c565b9a50506040611ae48e828f016119f3565b99505060608c013567ffffffffffffffff811115611b0557611b04611492565b5b611b118e828f0161191c565b98505060808c013567ffffffffffffffff811115611b3257611b31611492565b5b611b3e8e828f0161191c565b97505060a08c013567ffffffffffffffff811115611b5f57611b5e611492565b5b611b6b8e828f0161191c565b96505060c0611b7c8e828f016119f3565b95505060e0611b8d8e828f016119f3565b945050610100611b9f8e828f016116f3565b9350506101208c013567ffffffffffffffff811115611bc157611bc0611492565b5b611bcd8e828f0161191c565b925050610140611bdf8e828f016119f3565b9150509295989b509295989b9093969950565b600082825260208201905092915050565b6000611c0e826114fa565b611c188185611bf2565b9350611c28818560208601611516565b611c3181611540565b840191505092915050565b611c458161158a565b82525050565b611c54816115c3565b82525050565b611c63816115e4565b82525050565b6000610180830160008301518482036000860152611c878282611c03565b9150506020830151611c9c6020860182611c3c565b5060408301518482036040860152611cb48282611c03565b91505060608301518482036060860152611cce8282611c03565b91505060808301518482036080860152611ce88282611c03565b91505060a0830151611cfd60a0860182611c3c565b5060c0830151611d1060c0860182611c3c565b5060e0830151611d2360e0860182611c4b565b50610100830151611d38610100860182611c5a565b50610120830151848203610120860152611d528282611c03565b915050610140830151611d69610140860182611c5a565b50610160830151611d7e610160860182611c3c565b508091505092915050565b60006020820190508181036000830152611da38184611c69565b905092915050565b7f4e487b7100000000000000000000000000000000000000000000000000000000600052602260045260246000fd5b60006002820490506001821680611df257607f821691505b602082108103611e0557611e04611dab565b5b50919050565b7f4c616e6420646f6573206e6f7420657869737400000000000000000000000000600082015250565b6000611e41601383611505565b9150611e4c82611e0b565b602082019050919050565b60006020820190508181036000830152611e7081611e34565b9050919050565b7f4d75737420706179206578616374206c616e6420707269636500000000000000600082015250565b6000611ead601983611505565b9150611eb882611e77565b602082019050919050565b60006020820190508181036000830152611edc81611ea0565b9050919050565b7f43616e6e6f74207472616e7366657220746f20796f757273656c660000000000600082015250565b6000611f19601b83611505565b9150611f2482611ee3565b602082019050919050565b60006020820190508181036000830152611f4881611f0c565b9050919050565b60008190508160005260206000209050919050565b60006020601f8301049050919050565b600082821b905092915050565b600060088302611fb17fffffffffffffffffffffffffffffffffffffffffffffffffffffffffffffffff82611f74565b611fbb8683611f74565b95508019841693508086168417925050509392505050565b6000819050919050565b6000611ff8611ff3611fee8461158a565b611fd3565b61158a565b9050919050565b6000819050919050565b61201283611fdd565b61202661201e82611fff565b848454611f81565b825550505050565b600090565b61203b61202e565b612046818484612009565b505050565b5b8181101561206a5761205f600082612033565b60018101905061204c565b5050565b601f8211156120af5761208081611f4f565b61208984611f64565b81016020851015612098578190505b6120ac6120a485611f64565b83018261204b565b50505b505050565b600082821c905092915050565b60006120d2600019846008026120b4565b1980831691505092915050565b60006120eb83836120c1565b9150826002028217905092915050565b612104826114fa565b67ffffffffffffffff81111561211d5761211c61181f565b5b6121278254611dda565b61213282828561206e565b600060209050601f8311600181146121655760008415612153578287015190505b61215d85826120df565b8655506121c5565b601f19841661217386611f4f565b60005b8281101561219b57848901518255600182019150602085019450602081019050612176565b868310156121b857848901516121b4601f8916826120c1565b8355505b6001600288020188555050505b505050505050565b600081905092915050565b50565b60006121e86000836121cd565b91506121f3826121d8565b600082019050919050565b6000612209826121db565b9150819050919050565b7f5061796d656e74207472616e73666572206661696c6564000000000000000000600082015250565b6000612249601783611505565b915061225482612213565b602082019050919050565b600060208201905081810360008301526122788161223c565b9050919050565b60006020820190506122946000830184611594565b92915050565b7f4f6e6c792061646d696e2063616e20766572696679206c616e64730000000000600082015250565b60006122d0601b83611505565b91506122db8261229a565b602082019050919050565b600060208201905081810360008301526122ff816122c3565b9050919050565b7f4c616e6420616c72656164792072656769737465726564000000000000000000600082015250565b600061233c601783611505565b915061234782612306565b602082019050919050565b6000602082019050818103600083015261236b8161232f565b9050919050565b7f496e76616c6964206f776e657220616464726573730000000000000000000000600082015250565b60006123a8601583611505565b91506123b382612372565b602082019050919050565b600060208201905081810360008301526123d78161239b565b9050919050565b7f5072696365206d7573742062652067726561746572207468616e203000000000600082015250565b6000612414601c83611505565b915061241f826123de565b602082019050919050565b6000602082019050818103600083015261244381612407565b9050919050565b600060608201905081810360008301526124648186611551565b905081810360208301526124788185611551565b90506124876040830184611594565b94935050505056fea264697066735822122076230bc6c593e8640b47ff63e506f8c8812bb82d70124e3341a28a7ebd84391964736f6c634300081c0033",
  "linkReferences": {},
  "deployedLinkReferences": {}
}